:100000000C9438000C9455000C9455000C94550039
:100010000C9455000C9455000C9455000C9455000C
:100020000C9455000C9455000C9455000C945500FC
:100030000C9455000C9455000C9455000C945500EC
:100040000C9455000C9455000C9455000C945500DC
:100050000C9455000C9455000C9455000C945500CC
:100060000C9455000C9455000C9455000C945500BC
:1000700011241FBECFEFD0E1DEBFCDBF11E0A0E065
:10008000B1E0ECEDF0E002C005900D92A030B107B8
:10009000D9F711E0A0E0B1E001C01D92A030B10796
:1000A000E1F70E9466000C946D000C9400001C990E
:1000B0000CC020E290E825B9892F8A95F1F715B890
:1000C000892F8A95F1F71C9BF6CF089580E284B9B9
:0C00D0008FED85B90E945700FDCFFFCFD7
:00000001FF
