:020000020000FC
:100000000C9439000C9438000C9438000C9438008F
:100010000C9438000C9438000C9438000C94380080
:100020000C9438000C9438000C9438000C94380070
:100030000C9438000C9438000C9438000C94380060
:100040000C9438000C9438000C9438000C94380050
:100050000C9438000C9438000C9438000C94380040
:100060000C9438000C9438000C9438000C94380030
:100070001895CCE6DD27088100610883C8E6026098
:100080000883D99A0FEF0DBF04E00EBF00E204B958
:100090000FEF05B9789401E003BF03C0189501C0C4
:1000A00088951C99FDCF2D9800E80150F1F72D9A05
:0800B00000E80150F1F7F5CF63
:00000001FF
