:100000000C9438000C9455000C9455000C94550039
:100010000C9455000C9455000C9455000C9455000C
:100020000C9455000C9455000C9455000C949000C1
:100030000C9455000C9455000C9455000C945500EC
:100040000C9455000C9455000C9455000C945500DC
:100050000C9455000C9455000C9455000C945500CC
:100060000C9455000C9455000C9455000C945500BC
:1000700011241FBECFEFD0E1DEBFCDBF11E0A0E065
:10008000B1E0ECE7F1E002C005900D92A030B107BD
:10009000D9F711E0A0E0B1E001C01D92A330B10793
:1000A000E1F70E947F000C94BD000C9400008FEFDC
:1000B0008AB91BB80895F8948091B6008062809345
:1000C000B6001092B00081E08093700020E137E22A
:1000D00089E190E00197F1F721503040C9F7109283
:1000E000B20081E08093B10017BA789408958091AE
:1000F000010180958BB983E08A95F1F708950E94FC
:1001000057000E945B0083B7817F83BF83B7816004
:1001100083BF889583B78E7F83BF0E947700F6CF19
:100120001F920F920FB60F9211248F9380910001AE
:100130008F5F80930001809100018038C1F410929C
:100140000001809101018F5F809301018091010185
:100150008C3369F410920101809102018F5F8093CA
:100160000201809102018C3311F4109202018F91EF
:0C0170000F900FBE0F901F901895FFCF4E
:00000001FF
