:100000000C9438000C9455000C9455000C94550039
:100010000C9455000C9457000C9455000C9455000A
:100020000C9455000C9455000C9455000C945500FC
:100030000C9455000C9455000C9455000C945500EC
:100040000C9455000C9455000C9455000C945500DC
:100050000C9455000C9455000C9455000C945500CC
:100060000C9455000C9455000C9455000C945500BC
:1000700011241FBECFEFD0E1DEBFCDBF11E0A0E065
:10008000B1E0EEE1F1E002C005900D92A030B107C1
:10009000D9F711E0A0E0B1E001C01D92A030B10796
:1000A000E1F70E9470000C948E000C9400001F92E7
:1000B0000F920FB60F9211240F900FBE0F901F904A
:1000C00018951C990CC020E290E825B9892F8A95D3
:1000D000F1F715B8892F8A95F1F71C9BF6CF089593
:1000E00080E284B98FED85B983B7817F846083BF57
:1000F00080916C00806180936C00809168008260C8
:1001000080936800D99A789483B7816083BF88957B
:0E01100083B78E7F83BF0E946100F6CFFFCFC2
:00000001FF
