:100000000C9438000C9455000C9455000C94550039
:100010000C9455000C9455000C9455000C9455000C
:100020000C9455000C9455000C9455000C945500FC
:100030000C9455000C9455000C9455000C945500EC
:100040000C9455000C9455000C9455000C945500DC
:100050000C9455000C9455000C9455000C945500CC
:100060000C9455000C9455000C9455000C945500BC
:1000700011241FBECFEFD0E1DEBFCDBF11E0A0E065
:10008000B1E0E2E0F1E002C005900D92A030B107CE
:10009000D9F711E0A0E0B1E001C01D92A030B10796
:1000A000E1F70E9465000C9480000C94000080EB46
:1000B00084B980E58CBD8DB58EB508958EBD0DB427
:1000C00007FEFDCF8EB590E008951AB88FEF8BB97B
:1000D00087B988B980EB84B980E58CBD8DB58EB5C4
:1000E00089B18F3F59F089B18EBD0DB407FEFDCFA8
:1000F0008EB588B983E58A95F1F7F2CF18B8F0CFBD
:02010000FFCF2F
:00000001FF
