:100000000C9438000C9455000C9455000C94550039
:100010000C9455000C9472000C9455000C945500EF
:100020000C9455000C9455000C9455000C945500FC
:100030000C9455000C9455000C9455000C945500EC
:100040000C9455000C9455000C9455000C945500DC
:100050000C9455000C9455000C9455000C945500CC
:100060000C9455000C9455000C9455000C945500BC
:1000700011241FBECFEFD0E1DEBFCDBF11E0A0E065
:10008000B1E0EEE1F1E002C005900D92A030B107C1
:10009000D9F711E0A0E0B1E001C01D92A030B10796
:1000A000E1F70E9482000C948E000C94000088E01E
:1000B00084B98FEE85B983B7817F846083BFECE616
:1000C000F0E0808180618083E8E6F0E080818260FA
:1000D0008083D99A82E484BD82E086BB8EE887BDA6
:1000E000789408951F920F920FB60F9211240F90DB
:1000F0000FBE0F901F90189581E085BD1C9BFECF11
:1001000015BC08950E94570083B7816083BF88950E
:0E01100083B78E7F83BF0E947C00F6CFFFCFA7
:00000001FF
