:020000020000FC
:100000000C9439000C9438000C9438000C9438008F
:100010000C9438000C9438000C9438000C94380080
:100020000C9438000C9438000C9438000C94380070
:100030000C9438000C9438000C9438000C94380060
:100040000C9438000C9438000C9438000C94380050
:100050000C9438000C9438000C9438000C94380040
:100060000C9438000C9438000C9438000C94380030
:10007000189500E204B90FEF05B91C99FECF2D9831
:1000800000E80150F1F72D9A00E80150F1F7F5CFA3
:00000001FF
