:100000000C9445000C9462000C9462000C94620005
:100010000C9462000C9462000C9462000C946200D8
:100020000C9462000C9462000C9462000C946200C8
:100030000C9462000C9462000C9462000C946200B8
:100040000C9462000C9462000C9462000C946200A8
:100050000C9462000C9462000C9462000C94620098
:100060000C9462000C9462000C9462000C94620088
:1000700020747970652063686172616374657220B1
:10008000746F2073656E64200A0011241FBECFEFC9
:10009000D0E1DEBFCDBF11E0A0E0B1E0E6E7FAE1DC
:1000A00002C005900D92AE30B107D9F711E0AEE075
:1000B000B1E001C01D92A431B107E1F70E948900AF
:1000C0000C943A0D0C9400008FEF87B988EB84B93B
:1000D00084E585B908950E9464000E94FC000E9496
:1000E000440140E061E080E00E948B0908950E9495
:1000F0001C01992708951F93182F8A3019F48DE059
:100100000E940C01812F0E940C0180E090E01F9161
:100110000895EF92FF920F931F93CF93DF93CDB784
:10012000DEB721970FB6F894DEBF0FBECDBF0E9499
:100130006B0080E091E09093110180931001909307
:100140000F0180930E0180E790E09F938F930E94B0
:10015000CB090F900F907E010894E11CF11C0E94C6
:1001600024018823E1F30E941401898388B941E0C6
:1001700061E070E0C7010E9468020E949D0188232F
:10018000E1F30E9426028823C1F30E94530581E017
:100190000E945C0700E010E00E949D018823F9F4B2
:1001A0008EE40F31180729F10F5F1F4F8EE40032E4
:1001B000180791F70E945305898199270E94FA092F
:1001C0008BE0982F9A95F1F7982F9A95F1F78A95E9
:1001D000F1F788E08A95F1F70E942F07C0CF0E94BF
:1001E0002C028823E9F261E070E0C7010E9450020E
:1001F000E1CF8FE38983DECF519A83E390E0909340
:10020000C5008093C40086E08093C2001092C000B5
:1002100088E18093C1000895982F8091C00085FFE8
:10022000FCCF9093C60008958091C00087FFFCCF5B
:100230008091C600992708958091C00087FFFCCF68
:100240008091C600992708958091C00099278078F1
:10025000907008959C018091C00087FD0AC006C07F
:100260008091C00087FD05C0215030402115310527
:10027000B9F78091C00087FD03C08FEF9FEF08950D
:100280008091C60099270895CF93DF93CDB7DEB74D
:1002900021970FB6F894DEBF0FBECDBF88EB84B9AF
:1002A00084E585B981E58CBD8DB589838EB589835B
:1002B00021960FB6F894DEBF0FBECDBFDF91CF9170
:1002C00008950DB407FC03C08FEF9FEF08958EB51E
:1002D000992708958EBD0DB407FEFDCF8EB59927E1
:1002E00008952B9808950E94710108952B9A0895FE
:1002F0000E94760183E08A95F1F70E9471010895CA
:100300000E947601089585B19927969587959695CF
:100310008795969587958170907008952C9808958B
:100320002C9A089585B19927929582958F70892787
:100330009F70892781709070089583B18695869506
:10034000809581709927089599278E709070969561
:1003500087950895DF92EF92FF920F931F93CF93AB
:10036000DF937B01D42E672BC9F0EC0100E010E095
:100370000AC088810E946A0188830F5F1F4F2196FF
:10038000E016F10659F0DD20A1F788810E946A018C
:100390000F5F1F4F2196E016F106A9F7DF91CF916D
:1003A0001F910F91FF90EF90DF900895CF92DF9211
:1003B000EF92FF920F931F93CF93DF93CDB7DEB7EA
:1003C00021970FB6F894DEBF0FBECDBFF82E6B019C
:1003D0008A01E22E0E948E01F98241E061E070E024
:1003E000CE0101960E94AA014E2DB801C6010E94BD
:1003F000AA010E9490018981992721960FB6F8944D
:10040000DEBF0FBECDBFDF91CF911F910F91FF9047
:10041000EF90DF90CF90089521E040E050E060E061
:1004200070E08FEF0E94D601992708950E940C0278
:10043000992708950E9416020E94A4019927089501
:100440000E94160299278071907008950E941602EA
:1004500099278072907008950E94160299278074DF
:100460009070089521E040E050E060E070E083EE9D
:100470000E94D6019927089521E040E050E060E015
:1004800070E082EE0E94D6019927089521E040E0B5
:1004900050E060E070E081EE0E94D6019927089557
:1004A000EF92FF920F931F938C017B010E947101C9
:1004B00021E0A701B80181E60E94D601182F0E9411
:1004C0007601812F99271F910F91FF90EF9008954A
:1004D0000F931F93142F20E0AB01BC0180EA0E9410
:1004E000D601082F113011F40E947801802F99272E
:1004F0001F910F91089521E08F710E94D6019927D5
:1005000008956F927F928F929F92AF92BF92CF92F7
:10051000DF92EF92FF920F931F93CF93DF93CDB7AC
:10052000DEB725970FB6F894DEBF0FBECDBF4C01E6
:10053000EE24FF2400E010E06E010894C11CD11CE1
:1005400045E050E0B6018E2D0E947B02F801E80DD7
:10055000F91D8981808381E090E040E050E066EF02
:10056000A62E6FEFB62EAE0CBF1CB601680F791F1A
:100570003F019A01DA01AC0DBD1D2F5F3F4F11966F
:100580000894611C711C2115310519F1041B150B10
:10059000020F131F82E0A816B10420F0E0E1EE166E
:1005A000F104F1F4F801E80DF91D8C918083A801A4
:1005B0004F5F5F4FC90101968530910580F4A90115
:1005C000B601680F791F3F019A01DA01AC0DBD1D1C
:1005D000D4CFFB018191BF01F3018083CECF8A018B
:1005E0000894E11CF11CF8E1EF16F10409F0A8CF22
:1005F00025960FB6F894DEBF0FBECDBFDF91CF9129
:100600001F910F91FF90EF90DF90CF90BF90AF9030
:100610009F908F907F906F900895CF93DF93CDB789
:10062000DEB721970FB6F894DEBF0FBECDBF41E015
:1006300050E0BE016F5F7F4F87E10E947B0289819E
:1006400099278170907021960FB6F894DEBF0FBE87
:10065000CDBFDF91CF910895CF93DF93CDB7DEB7B4
:1006600021970FB6F894DEBF0FBECDBF41E050E03A
:10067000BE016F5F7F4F87E10E947B0289819927CE
:100680008270907021960FB6F894DEBF0FBECDBF7A
:10069000DF91CF910895CF93DF93CDB7DEB7219748
:1006A0000FB6F894DEBF0FBECDBF41E050E0BE01F3
:1006B0006F5F7F4F87E10E947B028981992780715C
:1006C000907021960FB6F894DEBF0FBECDBFDF91BC
:1006D000CF910895CF93DF93CDB7DEB721970FB6B3
:1006E000F894DEBF0FBECDBF41E050E0BE016F5FAA
:1006F0007F4F87E10E947B028981992780729070E9
:1007000021960FB6F894DEBF0FBECDBFDF91CF911B
:100710000895CF93DF93CDB7DEB721970FB6F89446
:10072000DEBF0FBECDBF41E050E0BE016F5F7F4F27
:1007300087E10E947B0289819927807490702196BD
:100740000FB6F894DEBF0FBECDBFDF91CF910895F5
:10075000CF93DF93CDB7DEB721970FB6F894DEBF06
:100760000FBECDBF41E050E0BE016F5F7F4F87E11C
:100770000E947B028981992721960FB6F894DEBFEB
:100780000FBECDBFDF91CF910895CF93DF93CDB74B
:10079000DEB721970FB6F894DEBF0FBECDBF41E0A4
:1007A00050E0BE016F5F7F4F89E00E947B0289812C
:1007B000992721960FB6F894DEBF0FBECDBFDF910B
:1007C000CF9108951F93CF93DF93CDB7DEB72197D5
:1007D0000FB6F894DEBF0FBECDBF182F863018F0CD
:1007E00080E090E013C041E050E0BE016F5F7F4FBA
:1007F00082E00E947B0281E090E002C0880F991F96
:100800001A95E2F729812823822F992721960FB67E
:10081000F894DEBF0FBECDBFDF91CF911F91089539
:100820001F93CF93DF93CDB7DEB721970FB6F89420
:10083000DEBF0FBECDBF182F863018F080E090E0ED
:1008400013C041E050E0BE016F5F7F4F81E00E9426
:100850007B0281E090E002C0880F991F1A95E2F7B1
:1008600029812823822F992721960FB6F894DEBF7D
:100870000FBECDBFDF91CF911F910895CF93DF932E
:10088000CDB7DEB721970FB6F894DEBF0FBECDBF50
:1008900041E050E0BE016F5F7F4F88E00E947B0225
:1008A000898199278F70907021960FB6F894DEBFDA
:1008B0000FBECDBFDF91CF910895CF93DF93CDB71A
:1008C000DEB721970FB6F894DEBF0FBECDBF41E073
:1008D00050E0BE016F5F7F4F88E00E947B028981FC
:1008E00082958F70992721960FB6F894DEBF0FBEC0
:1008F000CDBFDF91CF910895CF93DF93CDB7DEB712
:1009000021970FB6F894DEBF0FBECDBF41E050E097
:10091000BE016F5F7F4F88E00E947B02898199272B
:1009200021960FB6F894DEBF0FBECDBFDF91CF91F9
:100930000895CF93DF93CDB7DEB721970FB6F89424
:10094000DEBF0FBECDBF41E050E0BE016F5F7F4F05
:1009500085E00E947B028981992721960FB6F89441
:10096000DEBF0FBECDBFDF91CF910895CF93DF9350
:10097000CDB7DEB721970FB6F894DEBF0FBECDBF5F
:1009800041E050E0BE016F5F7F4F80E00E947B023C
:100990008981992721960FB6F894DEBF0FBECDBF8F
:1009A000DF91CF910895CF93DF93CDB7DEB7219735
:1009B0000FB6F894DEBF0FBECDBF863018F080E0D2
:1009C00090E00AC041E050E0BE016F5F7F4F8F5E54
:1009D0000E947B028981992721960FB6F894DEBF89
:1009E0000FBECDBFDF91CF9108958F7120E080625F
:1009F0000E94D60199270895CF93DF93CDB7DEB734
:100A000021970FB6F894DEBF0FBECDBF80E189837A
:100A100041E050E0BE016F5F7F4F87E00E94F50428
:100A200021960FB6F894DEBF0FBECDBFDF91CF91F8
:100A30000895CF93DF93CDB7DEB721970FB6F89423
:100A4000DEBF0FBECDBF80E2898341E050E0BE0132
:100A50006F5F7F4F87E00E94F50421960FB6F894F0
:100A6000DEBF0FBECDBFDF91CF910895CF93DF934F
:100A7000CDB7DEB721970FB6F894DEBF0FBECDBF5E
:100A800080E4898341E050E0BE016F5F7F4F87E0E3
:100A90000E94F50421960FB6F894DEBF0FBECDBFBD
:100AA000DF91CF910895CF93DF93CDB7DEB7219734
:100AB0000FB6F894DEBF0FBECDBF80E7898341E05B
:100AC00050E0BE016F5F7F4F87E00E94F5042196E2
:100AD0000FB6F894DEBF0FBECDBFDF91CF91089562
:100AE0000E943C020E9446020E9453050895EF9224
:100AF000FF921F93CF93DF93CDB7DEB721970FB649
:100B0000F894DEBF0FBECDBF182F863038F541E018
:100B100050E07E010894E11CF11CB70182E00E94C4
:100B20007B024981212F3327842F9927022E02C06F
:100B3000959587950A94E2F780FF10C081E090E0D8
:100B400002C0880F991F2A95E2F780958423898334
:100B500041E050E0B70182E00E94F50421960FB613
:100B6000F894DEBF0FBECDBFDF91CF911F91FF90F4
:100B7000EF900895EF92FF921F93CF93DF93CDB73D
:100B8000DEB721970FB6F894DEBF0FBECDBF182F8A
:100B9000863030F541E050E07E010894E11CF11C04
:100BA000B70182E00E947B024981212F3327842FE5
:100BB0009927022E02C0959587950A94E2F780FD49
:100BC0000FC081E090E002C0880F991F2A95E2F7DC
:100BD000482B498341E050E0B70182E00E94F504D0
:100BE00021960FB6F894DEBF0FBECDBFDF91CF9137
:100BF0001F91FF90EF900895EF92FF921F93CF9374
:100C0000DF93CDB7DEB721970FB6F894DEBF0FBEE6
:100C1000CDBF182F863038F541E050E07E010894B2
:100C2000E11CF11CB70181E00E947B024981212F68
:100C30003327842F9927022E02C0959587950A9411
:100C4000E2F780FF10C081E090E002C0880F991F9A
:100C50002A95E2F780958423898341E050E0B7012B
:100C600081E00E94F50421960FB6F894DEBF0FBE16
:100C7000CDBFDF91CF911F91FF90EF900895EF923C
:100C8000FF921F93CF93DF93CDB7DEB721970FB6B7
:100C9000F894DEBF0FBECDBF182F863030F541E08F
:100CA00050E07E010894E11CF11CB70181E00E9434
:100CB0007B024981212F3327842F9927022E02C0DE
:100CC000959587950A94E2F780FD0FC081E090E04A
:100CD00002C0880F991F2A95E2F7482B498341E00B
:100CE00050E0B70181E00E94F50421960FB6F89418
:100CF000DEBF0FBECDBFDF91CF911F91FF90EF9070
:100D00000895CF93DF93CDB7DEB721970FB6F89450
:100D1000DEBF0FBECDBF898341E050E0BE016F5FF3
:100D20007F4F85E00E94F50421960FB6F894DEBF50
:100D30000FBECDBFDF91CF9108950F931F93CF9337
:100D4000DF93CDB7DEB721970FB6F894DEBF0FBEA5
:100D5000CDBF41E050E08E010F5F1F4FB80185E02D
:100D60000E947B0241E050E0B80185E00E94F5045A
:100D700021960FB6F894DEBF0FBECDBFDF91CF91A5
:100D80001F910F910895CF93DF93CDB7DEB72197D1
:100D90000FB6F894DEBF0FBECDBF8F77898341E0D9
:100DA00050E0BE016F5F7F4F85E00E94F504219601
:100DB0000FB6F894DEBF0FBECDBFDF91CF9108957F
:100DC000CF93DF93CDB7DEB721970FB6F894DEBF90
:100DD0000FBECDBF898341E050E0BE016F5F7F4F02
:100DE00080E00E94F50421960FB6F894DEBF0FBE96
:100DF000CDBFDF91CF910895CF93DF93CDB7DEB70D
:100E000021970FB6F894DEBF0FBECDBF8983962F12
:100E1000663058F4813248F441E050E0BE016F5F23
:100E20007F4F892F8F5E0E94F50421960FB6F894AC
:100E3000DEBF0FBECDBFDF91CF910895242F463086
:100E400008F00895AB01BC01822F865F0E94F50473
:100E50000895AB01BC0180E10E94F50408950F9351
:100E60001F93CF93DF93CDB7DEB721970FB6F894DA
:100E7000DEBF0FBECDBF41E050E08E010F5F1F4FC0
:100E8000B80180E00E947B02898180FF0AC08E7FCA
:100E9000898341E050E0B80180E00E94F5040E949F
:100EA000710121960FB6F894DEBF0FBECDBFDF9162
:100EB000CF911F910F910895FF920F931F93CF939E
:100EC000DF93CDB7DEB721970FB6F894DEBF0FBE24
:100ED000CDBFF82E41E050E08E010F5F1F4FB801EB
:100EE00080E00E947B02898180FD0FC08160898340
:100EF00041E050E0B80180E00E94F504FF2019F0C5
:100F00000E94760102C00E94710121960FB6F894EA
:100F1000DEBF0FBECDBFDF91CF911F910F91FF902C
:100F20000895CF93DF93CDB7DEB721970FB6F8942E
:100F3000DEBF0FBECDBF8D7F898341E050E0BE0193
:100F40006F5F7F4F80E00E94F5040E94710121963F
:100F50000FB6F894DEBF0FBECDBFDF91CF910895DD
:100F60000F931F93CF93DF93CDB7DEB721970FB6C3
:100F7000F894DEBF0FBECDBF41E050E08E010F5FA1
:100F80001F4FB80180E00E947B02898181FF0AC067
:100F90008D7F898341E050E0B80180E00E94F50434
:100FA0000E94710121960FB6F894DEBF0FBECDBF2F
:100FB000DF91CF911F910F9108951F93CF93DF93EE
:100FC000CDB7DEB721970FB6F894DEBF0FBECDBF09
:100FD000182F862F8260898341E050E0BE016F5F49
:100FE0007F4F80E00E94F50480E08A95F1F78981C7
:100FF00080FF02C0112319F40E94710102C00E94F7
:10100000760121960FB6F894DEBF0FBECDBFDF91FB
:10101000CF911F910895682F6E7F61FF04C080E01B
:101020000E94DD070895862F0E9491070895616050
:1010300061FF03C00E94DD070895862F0E9491077B
:101040000895FF920F931F93CF93DF93CDB7DEB731
:1010500021970FB6F894DEBF0FBECDBFF82E41E04A
:1010600050E08E010F5F1F4FB80180E00E947B02AD
:10107000898181FD15C08260898341E050E0B8011B
:1010800080E00E94F50480E08A95F1F7898180FF75
:1010900002C0FF2019F40E94710102C00E94760173
:1010A00021960FB6F894DEBF0FBECDBFDF91CF9172
:1010B0001F910F91FF9008951F93CF93DF93CDB7AA
:1010C000DEB721970FB6F894DEBF0FBECDBF6983A0
:1010D000882311F019E001C018E041E050E0BE01A2
:1010E0006F5F7F4F81E10E94F504612F81E00E94D4
:1010F000DD0721960FB6F894DEBF0FBECDBFDF919E
:10110000CF911F9108952F923F924F925F926F92CD
:101110007F928F929F92AF92CF92DF92EF92FF9247
:101120000F931F93CF93DF93CDB7DEB725970FB6FD
:10113000F894DEBF0FBECDBFF82ED62E122F34018D
:10114000498C5A8C2F8C38A0498341E050E04E01E5
:101150000894811C911CB40181E00E94F50419835C
:1011600041E050E0B40182E00E94F504098341E0CF
:1011700050E0B40183E00E94F504E98241E050E0D0
:10118000B40184E00E94F504C98241E050E0B4015A
:1011900085E00E94F504A98241E050E0B40186E0B8
:1011A0000E94F5046114710409F474C040E065E024
:1011B00070E0C3010E941E074114510409F47AC073
:1011C00041E065E070E0C2010E941E078B8D8983BB
:1011D00042E061E070E0C4010E941E078C8D8983AB
:1011E00043E061E070E0C4010E941E078D8D898399
:1011F00044E061E070E0C4010E941E078E8D898387
:1012000045E061E070E0C4010E941E072114310432
:1012100009F45DC065E070E0C1010E94290789A161
:10122000898341E050E0B40181E10E94F5048AA184
:10123000898341E050E0B40182E10E94F5048BA172
:10124000898341E050E0B40183E10E94F5048CA160
:10125000898341E050E0B40184E10E94F5048DA14E
:10126000898341E050E0B40185E10E94F5048EA13C
:10127000898341E050E0B40186E10E94F504F1FE6B
:1012800005C06F2D8D2D0E94DD072DC08F2D0E9472
:10129000910729C087EE89838A838B838C838D8312
:1012A00040E065E070E0C4010E941E074114510453
:1012B00009F086CF82EC89838A838B838C838D832C
:1012C00041E065E070E0C4010E941E077FCF87EE19
:1012D00089838A838B838C838D8365E070E0C4016E
:1012E0000E9429079CCF25960FB6F894DEBF0FBE4B
:1012F000CDBFDF91CF911F910F91FF90EF90DF90C5
:10130000CF90AF909F908F907F906F905F904F9015
:101310003F902F9008958F929F92AF92CF92EF922D
:101320000F93813031F03AE090E0442321F091E0D6
:1013300002C03BE0F9CF1F921F921F921F921F9293
:101340006F931F921F9286EC8F9385EC8F9384ECA2
:101350008F9383EC8F931F921F9288249924FFE030
:10136000AF2EE2E0CE2E73E0E72E03E023E0492F1C
:1013700061E0832F0E9483088DB79EB70E960FB64B
:10138000F8949EBF0FBE8DBF0F91EF90CF90AF909E
:101390009F908F900895CF93DF93CDB7DEB72297BC
:1013A0000FB6F894DEBF0FBECDBFFE013796619138
:1013B0007191FA83E983E0911001F0911101838129
:1013C0008860838349815A81809110019091110135
:1013D0000E94010AE0911001F09111012381277F01
:1013E000238322960FB6F894DEBF0FBECDBFDF91E8
:1013F000CF91089560911001709111010E94EB0C42
:1014000008952F923F924F925F926F927F928F92A8
:101410009F92AF92BF92CF92DF92EF92FF920F9383
:101420001F93CF93DF93CDB7DEB764970FB6F894D1
:10143000DEBF0FBECDBFCC24DD2476011C017C8B2A
:101440006B8B2A01FC0117821682838181FD03C008
:101450008FEF9FEF88C2AA24BB2472C2A0FE57C29E
:101460008A8980538A30E8F4FA89F03341F42D8573
:10147000222329F4A3FC03C080E091E06FC08AE03E
:10148000ED85E802C0011124FA89F80FF053FD87B9
:10149000F7FF02C02FE72D87A3FC4CC23D853E8796
:1014A00049C2C50188709070A3FE05C0ED85EE238A
:1014B00011F4F1E0FD872A89283624F525360CF051
:1014C0005BC0233509F480C024358CF42B32C1F184
:1014D0002C3234F42032C1F1233209F00DC23CC069
:1014E0003A893D32B1F13E3209F006C23AC08A89EA
:1014F000833609F449C084360CF081C0883509F080
:10150000FBC11BC0EA89E03709F4A3C0E13744F40A
:10151000EC3669F1EF3671F0E93609F0EDC16FC0D4
:10152000FA89F53709F49DC0F83739F0F33709F037
:10153000E3C134C028E0298B94C030E1398B91C0DD
:1015400080E190E0A82AB92AE0E2F0E0AE2ABF2AC2
:10155000F1C120E830E00DC080E490E0A82AB92A6B
:10156000E9C1E8E0F0E0AE2ABF2A1D86E3C124E02D
:1015700030E0A22AB32ADEC14FE3C42E3E853150AB
:101580003E8783E68A8B44C1F201C080FE85F1501C
:10159000FE8722E030E0420E531E3AC1F201C080C5
:1015A000D180892B49F0FD856F2F772767FD7095D6
:1015B000C6010E94E00C19C0F60101900020E9F775
:1015C0003197EC19E98B12C0F201C080D180892BD0
:1015D00049F0FD856F2F772767FD7095C6010E9442
:1015E000D50C03C0C6010E94CC0C898B22E030E0F0
:1015F000420E531E3E858989381B3E8709C1A2FED3
:1016000008C0F20180819181A281B38124E030E0A1
:1016100009C0F20180819181AA2797FDA095BA2F78
:1016200022E030E0420E531E6C017D01B7FF0CC07A
:1016300082E090E0A82AB92AF094E094D094C09473
:10164000C11CD11CE11CF11CEFEBFFEFAE22BF224D
:1016500021C020E430E0A22AB32A38E73A8B80E1A7
:10166000898BA2FE08C0F20180819181A281B381A1
:1016700024E030E007C0F20180819181AA27BB27D6
:1016800022E030E0420E531E6C017D018FEC9FEF93
:10169000A822B92287017601FE013196F88BEF87E7
:1016A000F9896F2E772488249924C801B701A401F1
:1016B00093010E94180D6A3024F02A89620F61524A
:1016C00001C0605DEF85F8896193F88BEF87C801F1
:1016D000B701A40193010E94180D79018A01211517
:1016E00031054105510509F7CC24DD247601CE01F1
:1016F0000196CF84C81AC50182739070892B19F0A6
:10170000FE85F150FE87A6FE09C02989203111F41B
:1017100082E001C081E03E85381B3E8738E0832EA1
:10172000912C8A209B20A3FE1BC08D85282F332758
:1017300027FD30958C2D99278217930754F0E7EFFA
:10174000FFEFAE22BF2228E0822E912C8A209B2020
:1017500007C0FD85FC19FD872E852F1B2E8703C032
:101760003E853C193E87C50180789170892B69F4CC
:101770008E8506C0B10180E290E00E94EB0C812FC3
:10178000182F11501816B4F31E87A1FE04C0B10122
:101790008DE290E00BC0A4FE04C0B1018BE290E0AA
:1017A00005C0A5FE05C0B10180E290E00E94EB0CEF
:1017B000A6FE10C0B10180E390E00E94EB0C898985
:1017C000803141F4B101EA898E2F992787FD9095E8
:1017D0000E94EB0CB0FE0DC08E8506C0B10180E307
:1017E00090E00E94EB0C812F182F11501816B4F3C3
:1017F0001E87892869F02D8506C0B10180E390E03D
:101800000E94EB0C212F122F11501216B4F31D87DA
:1018100090E8692E712C6A207B20A7FC0DC08E8574
:1018200006C0B10180E290E00E94EB0C812F182FDE
:1018300011501816B4F31E87FA89F33641F4B1013A
:101840008C2D992787FD90950E94EB0C45C02A8925
:101850002337B1F446015601198909C0F501819178
:101860005F01B101992787FD90950E94EB0C115003
:10187000A8F76401F989CF0ED11C2FEF298B2CC05A
:101880003A89333519F00F8518891FC04601860142
:10189000B98808C0F8018491B10199270E94EB0C26
:1018A0000F5F1F4FBA94FFEFBF16A1F7640129899C
:1018B000C20ED11CF98B10C0F80182918F01B101C9
:1018C000992787FD90950E94EB0CCE010196081791
:1018D000190791F7188B0F876728B1F08E8506C01E
:1018E000B10180E290E00E94EB0C812F182F115083
:1018F0001816B4F31E8708C0B101FA898F2F9927F3
:1019000087FD90950E94EB0CAA24BB2413C02A8962
:10191000253241F43AE0398B1E861D8681E0A82EDF
:10192000B12C08C0B101EA898E2F992787FD9095C7
:101930000E94EB0C2B893C892F5F3F4F3C8B2B8BFC
:10194000F101838183FF04C0EB89FC89F49103C01A
:10195000EB89FC89F081FA8B2A89222309F07ECD5C
:10196000F1018681978164960FB6F894DEBF0FBEB1
:10197000CDBFDF91CF911F910F91FF90EF90DF903E
:10198000CF90BF90AF909F908F907F906F905F901F
:101990004F903F902F900895FC0105900020E9F7AB
:1019A000809590958E0F9F1F0895FC0105906150C2
:1019B00070400110D8F7809590958E0F9F1F089565
:1019C000FC016150704001900110D8F7809590950E
:1019D0008E0F9F1F08950F931F93CF93DF938C015A
:1019E000EB018B81992781FF1BC082FF0DC02E81E7
:1019F0003F818C819D812817390764F4E881F98142
:101A00000193F983E88306C0E885F985802F09955D
:101A1000892B31F48E819F8101969F838E8302C032
:101A20000FEF1FEFC801DF91CF911F910F91089524
:101A3000A1E21A2EAA1BBB1BFD010DC0AA1FBB1FD2
:101A4000EE1FFF1FA217B307E407F50720F0A21B44
:101A5000B30BE40BF50B661F771F881F991F1A94B1
:101A600069F760957095809590959B01AC01BD01DB
:061A7000CF010895FFCF35
:0E1A760000000003000000007B00770000006D
:00000001FF
