:100000000C9438000C9455000C9455000C94550039
:100010000C9455000C9455000C9455000C9455000C
:100020000C9455000C9455000C9455000C945500FC
:100030000C9455000C9455000C9455000C945500EC
:100040000C9455000C9455000C9455000C945500DC
:100050000C9455000C9455000C9455000C945500CC
:100060000C9455000C9455000C9455000C945500BC
:1000700011241FBECFEFD0E1DEBFCDBF11E0A0E065
:10008000B1E0E8E7F2E102C005900D92A030B107BF
:10009000D9F711E0A0E0B1E001C01D92A030B10796
:1000A000E1F70E9468000C943B090C9400008FEF6C
:1000B00087B988EB84B984E585B908950E94570013
:1000C0000E940E0940E061E081E00E94CE080895A0
:1000D0000F931F93CF93DF93CDB7DEB721970FB662
:1000E000F894DEBF0FBECDBF0E945E008E010F5F91
:1000F0001F4F0E94D8008823E1F30E9467018823E4
:10010000C1F361E070E0C8010E948B010E948E047F
:10011000898188B98BE0982F9A95F1F7982F9A9555
:10012000F1F78A95F1F788E08A95F1F70E946A065F
:1001300041E061E070E0C8010E94A3010E94D80084
:100140008823E1F30E9461018823C1F30E948E0499
:1001500081E00E949706CDCF2B9808950E94AC00B5
:1001600008952B9A08950E94B10083E08A95F1F7D3
:100170000E94AC0008950E94B100089585B19927AE
:1001800096958795969587959695879581709070A9
:1001900008952C9808952C9A089585B199279295E1
:1001A00082958F7089279F7089278170907008953C
:1001B00083B18695869580958170992708959927B2
:1001C0008E709070969587950895DF92EF92FF92CA
:1001D0000F931F93CF93DF937B01D42E672BC9F02E
:1001E000EC0100E010E00AC088810E943409888395
:1001F0000F5F1F4F2196E016F10659F0DD20A1F7A1
:1002000088810E9434090F5F1F4F2196E016F10686
:10021000A9F7DF91CF911F910F91FF90EF90DF90A1
:100220000895CF92DF92EF92FF920F931F93CF9397
:10023000DF93CDB7DEB721970FB6F894DEBF0FBEC0
:10024000CDBFF82E6B018A01E22E0E94C900F9820F
:1002500041E061E070E0CE0101960E94E5004E2D84
:10026000B801C6010E94E5000E94CB008981992750
:1002700021960FB6F894DEBF0FBECDBFDF91CF91B0
:100280001F910F91FF90EF90DF90CF90089521E0A4
:1002900040E050E060E070E08FEF0E94110199278C
:1002A00008950E944701992708950E9451010E94D4
:1002B000DF00992708950E9451019927807190705D
:1002C00008950E94510199278072907008950E94AC
:1002D0005101992780749070089521E040E050E02A
:1002E00060E070E083EE0E9411019927089521E0FB
:1002F00040E050E060E070E082EE0E94110199273A
:10030000089521E040E050E060E070E081EE0E945E
:10031000110199270895EF92FF920F931F938C017B
:100320007B010E94AC0021E0A701B80181E60E9498
:100330001101182F0E94B100812F99271F910F9151
:10034000FF90EF9008950F931F93142F20E0AB01BF
:10035000BC0180EA0E941101082F113011F40E94A3
:10036000B300802F99271F910F91089521E08F717D
:100370000E941101992708956F927F928F929F9208
:10038000AF92BF92CF92DF92EF92FF920F931F93A3
:10039000CF93DF93CDB7DEB725970FB6F894DEBFC6
:1003A0000FBECDBF4C01EE24FF2400E010E06E0133
:1003B0000894C11CD11C45E050E0B6018E2D0E946E
:1003C000B601F801E80DF91D8981808381E090E094
:1003D00040E050E066EFA62E6FEFB62EAE0CBF1CCD
:1003E000B601680F791F3F019A01DA01AC0DBD1DFE
:1003F0002F5F3F4F11960894611C711C2115310528
:1004000019F1041B150B020F131F82E0A816B1048B
:1004100020F0E0E1EE16F104F1F4F801E80DF91D29
:100420008C918083A8014F5F5F4FC9010196853091
:10043000910580F4A901B601680F791F3F019A0167
:10044000DA01AC0DBD1DD4CFFB018191BF01F301D9
:100450008083CECF8A010894E11CF11CF8E1EF16ED
:10046000F10409F0A8CF25960FB6F894DEBF0FBEB1
:10047000CDBFDF91CF911F910F91FF90EF90DF9053
:10048000CF90BF90AF909F908F907F906F90089586
:10049000CF93DF93CDB7DEB721970FB6F894DEBFC9
:1004A0000FBECDBF41E050E0BE016F5F7F4F87E1DF
:1004B0000E94B601898199278170907021960FB6AC
:1004C000F894DEBF0FBECDBFDF91CF910895CF93DB
:1004D000DF93CDB7DEB721970FB6F894DEBF0FBE1E
:1004E000CDBF41E050E0BE016F5F7F4F87E10E94CA
:1004F000B601898199278270907021960FB6F89481
:10050000DEBF0FBECDBFDF91CF910895CF93DF93B4
:10051000CDB7DEB721970FB6F894DEBF0FBECDBFC3
:1005200041E050E0BE016F5F7F4F87E10E94B6015E
:10053000898199278071907021960FB6F894DEBF5B
:100540000FBECDBFDF91CF910895CF93DF93CDB78D
:10055000DEB721970FB6F894DEBF0FBECDBF41E0E6
:1005600050E0BE016F5F7F4F87E10E94B601898135
:1005700099278072907021960FB6F894DEBF0FBE57
:10058000CDBFDF91CF910895CF93DF93CDB7DEB785
:1005900021970FB6F894DEBF0FBECDBF41E050E00B
:1005A000BE016F5F7F4F87E10E94B6018981992765
:1005B0008074907021960FB6F894DEBF0FBECDBF49
:1005C000DF91CF910895CF93DF93CDB7DEB7219719
:1005D0000FB6F894DEBF0FBECDBF41E050E0BE01C4
:1005E0006F5F7F4F87E10E94B6018981992721962D
:1005F0000FB6F894DEBF0FBECDBFDF91CF91089547
:10060000CF93DF93CDB7DEB721970FB6F894DEBF57
:100610000FBECDBF41E050E0BE016F5F7F4F89E06C
:100620000E94B6018981992721960FB6F894DEBF02
:100630000FBECDBFDF91CF9108951F93CF93DF936E
:10064000CDB7DEB721970FB6F894DEBF0FBECDBF92
:10065000182F863018F080E090E013C041E050E0A1
:10066000BE016F5F7F4F82E00E94B60181E090E0A3
:1006700002C0880F991F1A95E2F729812823822F3B
:10068000992721960FB6F894DEBF0FBECDBFDF913C
:10069000CF911F9108951F93CF93DF93CDB7DEB70E
:1006A00021970FB6F894DEBF0FBECDBF182F86304E
:1006B00018F080E090E013C041E050E0BE016F5FB1
:1006C0007F4F81E00E94B60181E090E002C0880F78
:1006D000991F1A95E2F729812823822F99272196BD
:1006E0000FB6F894DEBF0FBECDBFDF91CF911F9143
:1006F0000895CF93DF93CDB7DEB721970FB6F89467
:10070000DEBF0FBECDBF41E050E0BE016F5F7F4F47
:1007100088E00E94B601898199278F709070219698
:100720000FB6F894DEBF0FBECDBFDF91CF91089515
:10073000CF93DF93CDB7DEB721970FB6F894DEBF26
:100740000FBECDBF41E050E0BE016F5F7F4F88E03C
:100750000E94B601898182958F70992721960FB6E4
:10076000F894DEBF0FBECDBFDF91CF910895CF9338
:10077000DF93CDB7DEB721970FB6F894DEBF0FBE7B
:10078000CDBF41E050E0BE016F5F7F4F88E00E9427
:10079000B6018981992721960FB6F894DEBF0FBE66
:1007A000CDBFDF91CF910895CF93DF93CDB7DEB763
:1007B00021970FB6F894DEBF0FBECDBF41E050E0E9
:1007C000BE016F5F7F4F85E00E94B6018981992746
:1007D00021960FB6F894DEBF0FBECDBFDF91CF914B
:1007E0000895CF93DF93CDB7DEB721970FB6F89476
:1007F000DEBF0FBECDBF41E050E0BE016F5F7F4F57
:1008000080E00E94B6018981992721960FB6F8945D
:10081000DEBF0FBECDBFDF91CF910895CF93DF93A1
:10082000CDB7DEB721970FB6F894DEBF0FBECDBFB0
:10083000863018F080E090E00AC041E050E0BE0150
:100840006F5F7F4F8F5E0E94B60189819927219645
:100850000FB6F894DEBF0FBECDBFDF91CF910895E4
:100860008F7120E080620E94110199270895CF9333
:10087000DF93CDB7DEB721970FB6F894DEBF0FBE7A
:10088000CDBF80E1898341E050E0BE016F5F7F4FC3
:1008900087E00E94300421960FB6F894DEBF0FBEA9
:1008A000CDBFDF91CF910895CF93DF93CDB7DEB762
:1008B00021970FB6F894DEBF0FBECDBF80E28983CB
:1008C00041E050E0BE016F5F7F4F87E00E9430043F
:1008D00021960FB6F894DEBF0FBECDBFDF91CF914A
:1008E0000895CF93DF93CDB7DEB721970FB6F89475
:1008F000DEBF0FBECDBF80E4898341E050E0BE0182
:100900006F5F7F4F87E00E94300421960FB6F89406
:10091000DEBF0FBECDBFDF91CF910895CF93DF93A0
:10092000CDB7DEB721970FB6F894DEBF0FBECDBFAF
:1009300080E7898341E050E0BE016F5F7F4F87E031
:100940000E94300421960FB6F894DEBF0FBECDBFD3
:10095000DF91CF9108950E9477010E9481010E944A
:100960008E040895EF92FF921F93CF93DF93CDB73C
:10097000DEB721970FB6F894DEBF0FBECDBF182F9C
:10098000863038F541E050E07E010894E11CF11C0E
:10099000B70182E00E94B6014981212F3327842FBD
:1009A0009927022E02C0959587950A94E2F780FF59
:1009B00010C081E090E002C0880F991F2A95E2F7ED
:1009C00080958423898341E050E0B70182E00E9452
:1009D000300421960FB6F894DEBF0FBECDBFDF9175
:1009E000CF911F91FF90EF900895EF92FF921F9388
:1009F000CF93DF93CDB7DEB721970FB6F894DEBF64
:100A00000FBECDBF182F863030F541E050E07E019B
:100A10000894E11CF11CB70182E00E94B6014981F3
:100A2000212F3327842F9927022E02C09595879571
:100A30000A94E2F780FD0FC081E090E002C0880FC9
:100A4000991F2A95E2F7482B498341E050E0B7010E
:100A500082E00E94300421960FB6F894DEBF0FBEEC
:100A6000CDBFDF91CF911F91FF90EF900895EF924E
:100A7000FF921F93CF93DF93CDB7DEB721970FB6C9
:100A8000F894DEBF0FBECDBF182F863038F541E099
:100A900050E07E010894E11CF11CB70181E00E9446
:100AA000B6014981212F3327842F9927022E02C0B6
:100AB000959587950A94E2F780FF10C081E090E059
:100AC00002C0880F991F2A95E2F7809584238983B5
:100AD00041E050E0B70181E00E94300421960FB65A
:100AE000F894DEBF0FBECDBFDF91CF911F91FF9075
:100AF000EF900895EF92FF921F93CF93DF93CDB7BE
:100B0000DEB721970FB6F894DEBF0FBECDBF182F0A
:100B1000863030F541E050E07E010894E11CF11C84
:100B2000B70181E00E94B6014981212F3327842F2C
:100B30009927022E02C0959587950A94E2F780FDC9
:100B40000FC081E090E002C0880F991F2A95E2F75C
:100B5000482B498341E050E0B70181E00E94300416
:100B600021960FB6F894DEBF0FBECDBFDF91CF91B7
:100B70001F91FF90EF900895CF93DF93CDB7DEB72D
:100B800021970FB6F894DEBF0FBECDBF898341E039
:100B900050E0BE016F5F7F4F85E00E9430042196D8
:100BA0000FB6F894DEBF0FBECDBFDF91CF91089591
:100BB0000F931F93CF93DF93CDB7DEB721970FB677
:100BC000F894DEBF0FBECDBF41E050E08E010F5F55
:100BD0001F4FB80185E00E94B60141E050E0B80126
:100BE00085E00E94300421960FB6F894DEBF0FBE58
:100BF000CDBFDF91CF911F910F910895CF93DF93D8
:100C0000CDB7DEB721970FB6F894DEBF0FBECDBFCC
:100C10008F77898341E050E0BE016F5F7F4F85E0B1
:100C20000E94300421960FB6F894DEBF0FBECDBFF0
:100C3000DF91CF910895CF93DF93CDB7DEB72197A2
:100C40000FB6F894DEBF0FBECDBF898341E050E000
:100C5000BE016F5F7F4F80E00E94300421960FB687
:100C6000F894DEBF0FBECDBFDF91CF910895CF9333
:100C7000DF93CDB7DEB721970FB6F894DEBF0FBE76
:100C8000CDBF8983962F663058F4813248F441E015
:100C900050E0BE016F5F7F4F892F8F5E0E9430044E
:100CA00021960FB6F894DEBF0FBECDBFDF91CF9176
:100CB0000895242F463008F00895AB01BC01822F1F
:100CC000865F0E9430040895AB01BC0180E10E9460
:100CD000300408950F931F93CF93DF93CDB7DEB702
:100CE00021970FB6F894DEBF0FBECDBF41E050E0B4
:100CF0008E010F5F1F4FB80180E00E94B60189810D
:100D000080FF0AC08E7F898341E050E0B80180E017
:100D10000E9430040E94AC0021960FB6F894DEBF0A
:100D20000FBECDBFDF91CF911F910F910895FF921C
:100D30000F931F93CF93DF93CDB7DEB721970FB6F5
:100D4000F894DEBF0FBECDBFF82E41E050E08E011B
:100D50000F5F1F4FB80180E00E94B601898180FDBE
:100D60000FC08160898341E050E0B80180E00E94BB
:100D70003004FF2019F00E94B10002C00E94AC00B4
:100D800021960FB6F894DEBF0FBECDBFDF91CF9195
:100D90001F910F91FF900895CF93DF93CDB7DEB7EA
:100DA00021970FB6F894DEBF0FBECDBF8D7F89832C
:100DB00041E050E0BE016F5F7F4F80E00E94300451
:100DC0000E94AC0021960FB6F894DEBF0FBECDBFD7
:100DD000DF91CF9108950F931F93CF93DF93CDB7FA
:100DE000DEB721970FB6F894DEBF0FBECDBF41E04E
:100DF00050E08E010F5F1F4FB80180E00E94B601E6
:100E0000898181FF0AC08D7F898341E050E0B8016C
:100E100080E00E9430040E94AC0021960FB6F89446
:100E2000DEBF0FBECDBFDF91CF911F910F9108950F
:100E30001F93CF93DF93CDB7DEB721970FB6F8940A
:100E4000DEBF0FBECDBF182F862F8260898341E0A1
:100E500050E0BE016F5F7F4F80E00E94300480E071
:100E60008A95F1F7898180FF02C0112319F40E944D
:100E7000AC0002C00E94B10021960FB6F894DEBF0C
:100E80000FBECDBFDF91CF911F910895682F6E7F68
:100E900061FF04C080E00E9418070895862F0E9419
:100EA000CC060895616061FF03C00E941807089591
:100EB000862F0E94CC060895FF920F931F93CF9325
:100EC000DF93CDB7DEB721970FB6F894DEBF0FBE24
:100ED000CDBFF82E41E050E08E010F5F1F4FB801EB
:100EE00080E00E94B601898181FD1DC082608983F6
:100EF00041E050E0B80180E00E94300420E030E0A2
:100F00009AE0892F8A95F1F72F5F3F4F2233310501
:100F1000C1F7898180FF02C0FF2019F40E94AC0054
:100F200002C00E94B10021960FB6F894DEBF0FBE3A
:100F3000CDBFDF91CF911F910F91FF9008951F9327
:100F4000CF93DF93CDB7DEB721970FB6F894DEBF0E
:100F50000FBECDBF6983882311F019E001C018E0EE
:100F600041E050E0BE016F5F7F4F81E10E9430049D
:100F7000612F81E00E94180721960FB6F894DEBF1A
:100F80000FBECDBFDF91CF911F9108952F923F9259
:100F90004F925F926F927F928F929F92AF92CF9279
:100FA000DF92EF92FF920F931F93CF93DF93CDB712
:100FB000DEB725970FB6F894DEBF0FBECDBFF82E73
:100FC000D62E122F3401498C5A8C2F8C38A049838D
:100FD00041E050E04E010894811C911CB40181E075
:100FE0000E943004198341E050E0B40182E00E9485
:100FF0003004098341E050E0B40183E00E943004F2
:10100000E98241E050E0B40184E00E943004C982EA
:1010100041E050E0B40185E00E943004A98241E043
:1010200050E0B40186E00E9430046114710409F4B8
:1010300074C040E065E070E0C3010E9459064114AD
:10104000510409F47AC041E065E070E0C2010E94F9
:1010500059068B8D898342E061E070E0C4010E94F3
:1010600059068C8D898343E061E070E0C4010E94E1
:1010700059068D8D898344E061E070E0C4010E94CF
:1010800059068E8D898345E061E070E0C4010E94BD
:1010900059062114310409F45DC065E070E0C10116
:1010A0000E94640689A1898341E050E0B40181E196
:1010B0000E9430048AA1898341E050E0B40182E1BA
:1010C0000E9430048BA1898341E050E0B40183E1A8
:1010D0000E9430048CA1898341E050E0B40184E196
:1010E0000E9430048DA1898341E050E0B40185E184
:1010F0000E9430048EA1898341E050E0B40186E172
:101100000E943004F1FE05C06F2D8D2D0E9418073E
:101110002DC08F2D0E94CC0629C087EE89838A833B
:101120008B838C838D8340E065E070E0C4010E9476
:1011300059064114510409F086CF82EC89838A83D1
:101140008B838C838D8341E065E070E0C4010E9455
:1011500059067FCF87EE89838A838B838C838D8327
:1011600065E070E0C4010E9464069CCF25960FB62E
:10117000F894DEBF0FBECDBFDF91CF911F910F91CD
:10118000FF90EF90DF90CF90AF909F908F907F90E7
:101190006F905F904F903F902F9008958F929F9205
:1011A000AF92CF92EF920F93813031F03AE090E01E
:1011B000442321F091E002C03BE0F9CF1F921F923F
:1011C0001F921F921F926F931F921F9286EC8F9314
:1011D00085EC8F9384EC8F9383EC8F931F921F92F7
:1011E00088249924FFE0AF2EE2E0CE2E73E0E72EB4
:1011F00003E023E0492F61E0832F0E94C6078DB7EB
:101200009EB70E960FB6F8949EBF0FBE8DBF0F917E
:10121000EF90CF90AF909F908F900895CF93DF93F2
:10122000CDB7DEB721970FB6F894DEBF0FBECDBFA6
:1012300088EB84B984E585B981E58CBD8DB589835A
:101240008EB5898321960FB6F894DEBF0FBECDBF51
:10125000DF91CF9108950DB407FC03C08FEF9FEF8E
:1012600008958EB5992708958EBD0DB407FEFDCF64
:081270008EB599270895FFCF08
:00000001FF
