:100000000C9440000C945D000C945D000C945D0019
:100010000C945D000C945D000C945D000C945D00EC
:100020000C945D000C945D000C945D000C945D00DC
:100030000C945D000C945D000C945D000C945D00CC
:100040000C945D000C945D000C945D000C945D00BC
:100050000C945D000C945D000C945D000C945D00AC
:100060000C945D000C945D000C945D000C945D009C
:10007000456E74657220636F6D6D616E643A200029
:1000800011241FBECFEFD0E1DEBFCDBF11E0A0E055
:10009000B1E0E2EEF5E102C005900D92A437B107A0
:1000A000D9F711E0A4E7B1E001C01D92AD3CB10762
:1000B000E1F70E9469000C94F00A0C94000020E023
:1000C000E0E2FEE4CF010197F1F72F5F2436D1F78C
:1000D00008958F929F92AF92BF92CF92DF92EF924C
:1000E000FF920F931F93CF93DF93CDB7DEB7A897FF
:1000F0000FB6F894DEBF0FBECDBF80E880936100DD
:10010000109261000E942C020E94170230E5832E9B
:1001100031E0932E9092C8018092C7019092CA015B
:100120008092C9012EE5A22E21E0B22EB092CC0120
:10013000A092CB0195014DE050E061E070E080E0DD
:1001400091E00E94B70390E7C92E90E0D92E85E197
:10015000E82EF12CEC0EFD1EDF92CF920E941804C7
:100160004091C7015091C80163E170E0C7010E944E
:1001700039030F900F90892B09F46EC08D89992750
:100180000E948D0A8137910509F466C08C3691056D
:1001900081F085379105F1F1FF92EF928EE091E0C9
:1001A0009F938F930E94F8030F900F900F900F90E2
:1001B000D3CF8E010F5F1F4F1F930F9383E291E008
:1001C0009F938F93FF92EF920E947A042DB73EB7D0
:1001D0002A5F3F4F0FB6F8943EBF0FBE2DBF1816D3
:1001E00019060CF056C01F930F938AE291E09F937B
:1001F0008F93BF92AF920E946C0382E391E00E94C2
:1002000047048DB79EB706960FB6F8949EBF0FBEF3
:100210008DBFA2CF8E010F5F1F4F1F930F9383E2FD
:1002200091E09F938F93FF92EF920E947A042DB7F3
:100230003EB72A5F3F4F0FB6F8943EBF0FBE2DBFAB
:100240001816190634F51F930F938AE291E09F93D5
:100250008F939F928F92CFCF2091CB013091CC0181
:1002600047E050E061E070E085E491E00E94B70370
:100270000E945F0010E06091CB017091CC018EE292
:1002800090E00E948A030E945F001F5F133099F77D
:1002900005C085E391E00E9447045ECF2091CB0129
:1002A0003091CC0142E050E061E070E08DE491E0FB
:1002B0000E94B70380E090E0A8960FB6F894DEBFE6
:1002C0000FBECDBFDF91CF911F910F91FF90EF90A7
:1002D000DF90CF90BF90AF909F908F900895982F10
:1002E0001498662311F0169A01C0169882B1807F87
:1002F0009F70892B82B9159A81E08A95F1F715983C
:1003000008950F931F93082F162F82958F700E94C8
:100310006F01612F802F8F700E946F011F910F91CD
:100320000895149A91B1907F91B9882311F0169A8B
:1003300001C01698159A81E08A95F1F780B1159859
:1003400091B19F6091B914988F70992708950F9378
:100350001F93082F0E949101182F1295107F802F54
:100360000E949101182B812F99271F910F910895B9
:1003700080E00E94A70187FDFBCF08958FE781B938
:1003800080E395E70197F1F760E083E00E946F0159
:1003900088E090E20197F1F760E083E00E946F014E
:1003A00088EC90E00197F1F760E083E00E946F0134
:1003B00060E082E00E946F010E94B80160E088E284
:1003C0000E9481010E94B80160E088E00E948101E2
:1003D0000E94B80108951F93182F809174018823FB
:1003E000E9F01A30E9F00E94B80160E081E00E9473
:1003F00081010E94B80160E082E00E9481010E94B8
:10040000B80160E080E80E948101109274010E94AE
:10041000B80161E0812F0E94810105C01A30B9F74F
:1004200081E08093740180E090E01F9108950E9424
:10043000BE0160E081E00E9481010E94B80160E09D
:1004400086E00E9481010E94B80160E08EE00E9477
:1004500081010E94B801089583E38093C40088E17C
:100460008093C10008951F93182F873049F08A3078
:10047000A1F08091C00085FFFCCF1093C60011C091
:100480002091CB013091CC0147E050E061E070E079
:100490008CE691E00E94B70304C08DE00E94330215
:1004A000E8CF80E090E01F910895CF92DF92EF9225
:1004B000FF920F931F93CF93DF93EC01E0917501AF
:1004C000F0917601309771F08191F0937601E0938D
:1004D00075018A3011F09927C3C0109276011092ED
:1004E0007501F9CF07E711E068018091C00087FF2F
:1004F000FCCF8091C00084FD35C08091C00083FD99
:100500002EC09091C6009D30E9F09A30D9F0993014
:1005100091F0892F80528F3510F0903A30F1F1E050
:10052000063C1F0751F0F80191938F01BE01892FFE
:100530000E943302DACF90E2F2CFBE0187E00E9440
:100540003302D3CF8AE0F8018083BE010E943302D8
:10055000E7E7F1E0D0927601C0927501B5CF8FEF59
:100560009FEF7EC08EEF9FEF7BC09231C1F1933140
:10057000D0F49330A1F3983009F0B7CFF1E007370A
:100580001F0709F008F4B1CFBE0188E00E943302D2
:10059000BE0180E20E943302BE0188E00E94330265
:1005A00001501040A2CF973191F19F3739F3953127
:1005B00009F09BCF0EC0BE0188E00E943302BE014D
:1005C00080E20E943302BE0188E00E9433020150A3
:1005D0001040F1E007371F0709F068F786CFBE012A
:1005E0008DE00E94330281E00737180709F008F414
:1005F0007CCF87E7E82E81E0F82EBE01F7018191DC
:100600007F010E943302E016F106B8F36ECF81E05D
:100610000737180709F008F468CF78010894E10853
:10062000F108F7018081803239F45FCFF7018291C0
:100630007F01803209F459CFBE0188E00E94330265
:10064000BE0180E20E943302BE0188E00E943302B4
:10065000870187E7E81681E0F80609F038F745CF0B
:10066000DF91CF911F910F91FF90EF90DF90CF908E
:100670000895CF92DF92EF92FF920F931F93CF9343
:10068000DF937C016A01FA01838180FF19C016168D
:100690001706B4F4EB0187010DC0C6010E942E0AB3
:1006A000FFEF8F3F9F0761F0F80181938F01219742
:1006B0000A9719F0C130D10581F7F801108202C004
:1006C000EE24FF24C701DF91CF911F910F91FF907E
:1006D000EF90DF90CF900895CF93DF93CDB7DEB743
:1006E00022970FB6F894DEBF0FBECDBFAE01455FB7
:1006F0005F4F5A83498369857A858F8198850E94E7
:100700009E0422960FB6F894DEBF0FBECDBFDF91D8
:10071000CF9108950F931F93CF93DF938C01EB013B
:100720008B81992781FF1BC082FF0DC02E813F81E5
:100730008C819D812817390764F4E881F981019340
:10074000F983E88306C0E885F985802F0995892B10
:1007500031F48E819F8101969F838E8302C00FEFBB
:100760001FEFC801DF91CF911F910F9108958F92D4
:100770009F92AF92BF92CF92DF92EF92FF920F9330
:100780001F93CF93DF93FC014B015A017901E901DB
:100790008B8181FF1DC08F01CC24DD2413C0F701A4
:1007A00020853185B701F8018081F9010995892BF0
:1007B00089F40F5F1F4F2196C815D90581F708945A
:1007C000C11CD11CCA14DB0429F0C0E0D0E0F4CF76
:1007D000CC24DD24C601DF91CF911F910F91FF90B2
:1007E000EF90DF90CF90BF90AF909F908F90089543
:1007F000CF93DF93CDB7DEB722970FB6F894DEBF65
:100800000FBECDBFFE01379661917191FA83E983E6
:10081000AF018091C9019091CA010E949E04229665
:100820000FB6F894DEBF0FBECDBFDF91CF91089514
:10083000CF93DF93CDB7DEB722970FB6F894DEBF24
:100840000FBECDBFFE01379661917191FA83E983A6
:10085000E091C901F091CA01838188608383498155
:100860005A818091C9019091CA010E949E04E09131
:10087000C901F091CA012381277F238322960FB6F5
:10088000F894DEBF0FBECDBFDF91CF9108950F93D7
:100890001F93CF93DF938C01E091C901F091CA01BE
:1008A000838181FF1FC0C0E0D0E00AC0FD01208528
:1008B0003185BD01F9010995892B11F0CFEFDFEFEB
:1008C000F80181918F01A091C901B091CA018823DB
:1008D00069F7FD0120853185BD018AE0F90109959F
:1008E000892B11F0CFEFDFEFCE01DF91CF911F9178
:1008F0000F910895CF93DF93CDB7DEB760970FB612
:10090000F894DEBF0FBECDBF85E08E838D899E89B2
:100910009C838B83AE01475E5F4F5A8349836F8907
:10092000788DCE0103960E94690760960FB6F89401
:10093000DEBF0FBECDBFDF91CF9108952F923F92C2
:100940004F925F926F927F928F929F92AF92BF92DF
:10095000CF92DF92EF92FF920F931F93CF93DF938B
:10096000CDB7DEB764970FB6F894DEBF0FBECDBF2C
:10097000CC24DD2476011C017C8B6B8B2A01FC01CD
:1009800017821682838181FD03C08FEF9FEF88C29B
:10099000AA24BB2472C2A0FE57C28A8980538A301F
:1009A000E8F4FA89F03341F42D85222329F4A3FCDD
:1009B00003C080E091E06FC08AE0ED85E802C001ED
:1009C0001124FA89F80FF053FD87F7FF02C02FE7D3
:1009D0002D87A3FC4CC23D853E8749C2C501887066
:1009E0009070A3FE05C0ED85EE2311F4F1E0FD87C4
:1009F0002A89283624F525360CF05BC0233509F406
:100A000080C024358CF42B32C1F12C3234F42032E6
:100A1000C1F1233209F00DC23CC03A893D32B1F137
:100A20003E3209F006C23AC08A89833609F449C0C9
:100A300084360CF081C0883509F0FBC11BC0EA89FF
:100A4000E03709F4A3C0E13744F4EC3669F1EF363E
:100A500071F0E93609F0EDC16FC0FA89F53709F494
:100A60009DC0F83739F0F33709F0E3C134C028E00E
:100A7000298B94C030E1398B91C080E190E0A82AA5
:100A8000B92AE0E2F0E0AE2ABF2AF1C120E830E066
:100A90000DC080E490E0A82AB92AE9C1E8E0F0E0BE
:100AA000AE2ABF2A1D86E3C124E030E0A22AB32A81
:100AB000DEC14FE3C42E3E8531503E8783E68A8BEC
:100AC00044C1F201C080FE85F150FE8722E030E093
:100AD000420E531E3AC1F201C080D180892B49F0E9
:100AE000FD856F2F772767FD7095C6010E94230A49
:100AF00019C0F60101900020E9F73197EC19E98B54
:100B000012C0F201C080D180892B49F0FD856F2F82
:100B1000772767FD7095C6010E94180A03C0C601B9
:100B20000E940F0A898B22E030E0420E531E3E8560
:100B30008989381B3E8709C1A2FE08C0F201808165
:100B40009181A281B38124E030E009C0F20180816B
:100B50009181AA2797FDA095BA2F22E030E0420E9E
:100B6000531E6C017D01B7FF0CC082E090E0A82A03
:100B7000B92AF094E094D094C094C11CD11CE11C1B
:100B8000F11CEFEBFFEFAE22BF2221C020E430E0EA
:100B9000A22AB32A38E73A8B80E1898BA2FE08C0EB
:100BA000F20180819181A281B38124E030E007C00D
:100BB000F20180819181AA27BB2722E030E0420E1A
:100BC000531E6C017D018FEC9FEFA822B922870193
:100BD0007601FE013196F88BEF87F9896F2E772425
:100BE00088249924C801B701A40193010E94CE0A68
:100BF0006A3024F02A89620F615201C0605DEF857E
:100C0000F8896193F88BEF87C801B701A4019301BC
:100C10000E94CE0A79018A0121153105410551054D
:100C200009F7CC24DD247601CE010196CF84C81AC1
:100C3000C50182739070892B19F0FE85F150FE87F3
:100C4000A6FE09C02989203111F482E001C081E0AB
:100C50003E85381B3E8738E0832E912C8A209B20CE
:100C6000A3FE1BC08D85282F332727FD30958C2DA3
:100C700099278217930754F0E7EFFFEFAE22BF22C8
:100C800028E0822E912C8A209B2007C0FD85FC192C
:100C9000FD872E852F1B2E8703C03E853C193E877E
:100CA000C50180789170892B69F48E8506C0B101E9
:100CB00080E290E00E948A03812F182F11501816AD
:100CC000B4F31E87A1FE04C0B1018DE290E00BC019
:100CD000A4FE04C0B1018BE290E005C0A5FE05C0F2
:100CE000B10180E290E00E948A03A6FE10C0B1012B
:100CF00080E390E00E948A038989803141F4B10148
:100D0000EA898E2F992787FD90950E948A03B0FE6D
:100D10000DC08E8506C0B10180E390E00E948A0379
:100D2000812F182F11501816B4F31E87892869F0E7
:100D30002D8506C0B10180E390E00E948A03212F37
:100D4000122F11501216B4F31D8790E8692E712CE2
:100D50006A207B20A7FC0DC08E8506C0B10180E211
:100D600090E00E948A03812F182F11501816B4F3B7
:100D70001E87FA89F33641F4B1018C2D992787FD3E
:100D800090950E948A0345C02A892337B1F4460111
:100D90005601198909C0F50181915F01B1019927B7
:100DA00087FD90950E948A031150A8F76401F98984
:100DB000CF0ED11C2FEF298B2CC03A89333519F077
:100DC0000F8518891FC046018601B98808C0F8013F
:100DD0008491B10199270E948A030F5F1F4FBA9433
:100DE000FFEFBF16A1F764012989C20ED11CF98B50
:100DF00010C0F80182918F01B101992787FD90956C
:100E00000E948A03CE0101960817190791F7188BE3
:100E10000F876728B1F08E8506C0B10180E290E0AF
:100E20000E948A03812F182F11501816B4F31E87C1
:100E300008C0B101FA898F2F992787FD90950E94EC
:100E40008A03AA24BB2413C02A89253241F43AE03C
:100E5000398B1E861D8681E0A82EB12C08C0B101F9
:100E6000EA898E2F992787FD90950E948A032B8906
:100E70003C892F5F3F4F3C8B2B8BF101838183FF9C
:100E800004C0EB89FC89F49103C0EB89FC89F081F3
:100E9000FA8B2A89222309F07ECDF1018681978180
:100EA00064960FB6F894DEBF0FBECDBFDF91CF9131
:100EB0001F910F91FF90EF90DF90CF90BF90AF9078
:100EC0009F908F907F906F905F904F903F902F906A
:100ED00008952F923F924F925F926F927F928F92DE
:100EE0009F92AF92BF92CF92DF92EF92FF920F93B9
:100EF0001F93CF93DF93CDB7DEB72A970FB6F89441
:100F0000DEBF0FBECDBFAA24BB2465013C017A879A
:100F100069872A01FC0117821682838180FD05C042
:100F20002FEF3FEF3D832C835FC21F821E824FEF66
:100F30005FEF5D834C83882499241B821A82198277
:100F40001DC25981E52EFF24E0FEDBC1153219F4E4
:100F50005E7F598300C2912F90539A3060F48FE7DF
:100F6000281611F480E004C08AE0289E802D112408
:100F7000282E290EFEC1812F992787FD90950E946A
:100F80008D0A382E9EE6391609F48CC19315DCF0D3
:100F9000A8E63A1609F4EDC1A31564F0B3E63B16D2
:100FA00091F1E4E63E1609F4A2C0FAE23F1609F018
:100FB00088C121C029E6321609F499C03CE63316EF
:100FC00009F07FC11CC043E7341609F44BC0431538
:100FD0004CF05FE6351609F47FC080E7381609F05B
:100FE00070C180C095E7391609F47EC0A8E73A16AB
:100FF00009F067C177C0B981B061B983BAC1E9812D
:10100000E460E983B6C1870100711070E4FC07C099
:10101000D201AD90BC90E2E0F0E04E0E5F1EFFE723
:101020002F1611F431E0232E75010FC0C3010E9469
:101030002E0A4C012FEF8F3F920709F4D1C1011501
:10104000110519F4D7018D937D012A94822D8F5FAC
:10105000181664F3570135C15701B301C4010E944A
:10106000710A34C0870100711070E4FC07C0F201FE
:10107000A080B18022E030E0420E531EC3010E94E6
:101080002E0A4C010E949D0A892BC1F73FEF83165F
:101090003FEF930609F4A4C1750112C0C4010E9478
:1010A0009D0A892BC9F60115110519F4D7018D92F6
:1010B0007D01C3010E942E0A4C018F5F9F4F29F0D2
:1010C0002A94822D8F5F18164CF35701012B09F0DB
:1010D000F8C0F5011082F5C0E981E260E983F8E02B
:1010E000F88705C020E12887398132603983C30140
:1010F0000E942E0A4C010E949D0A892BC1F74FEFD6
:1011000084164FEF940609F447C1882D8D3211F0F3
:101110008B3299F42A9412140CF03EC18D3219F4DA
:10112000598158605983C3010E942E0A4C018FEFE8
:1011300088168FEF980609F42FC190E38916A1F560
:10114000AA24BB2465012A9412140CF07EC0C301AA
:101150000E942E0A4C01AFEF8F3F9A0709F475C029
:101160000E948D0A8837D9F4BFE63B1631F0E4E6D9
:101170003E1619F0F5E73F1629F4B301C4010E94A9
:10118000710A63C0C3010E942E0A4C018F5F9F4FFA
:1011900019F430E1388759C040E1488705C059E665
:1011A000351611F488E08887EE24FF248701C401F6
:1011B0000E948D0A20EDC22E2FEFD22EC80ED91E0E
:1011C0009AE0C916D1043CF0C601C19762F0A9EDBE
:1011D000BFEFCA0EDB1ED7FC06C0B8858B2F992740
:1011E000C816D9063CF057016801B301C4010E943A
:1011F000710A21C0E8852E2F332744275527C801BF
:10120000B7010E94AF0A7B018C01C601AA2797FD96
:10121000A095BA2FE80EF91E0A1F1B1F2A9412145C
:1012200044F4C3010E942E0A4C018F5F9F4F09F0C6
:10123000BECF57016801298123FF07C0AA24BB2420
:101240006501AE18BF08C00AD10A4981242F33278F
:1012500024FD37C0C90186709070069741F4D20111
:10126000ED91FC91A082B182C282D38226C021FF7F
:1012700006C0D201ED91FC91B182A0821EC0C201D4
:10128000029622FF08C0D201ED91FC91A082B182AA
:10129000C282D38205C0D201ED91FC91B182A082BD
:1012A0002C010FC0E4FC0DC0F20120813181F3015B
:1012B00086819781D9018D939C93E2E0F0E04E0EF8
:1012C0005F1EF301868197812A813B8128173907A8
:1012D0006CF4398134FD06C04E815F814F5F5F4FF2
:1012E0005F834E831D821C82198243C05EE63516E1
:1012F00009F052C08FEF88168FEF980609F44CC0A2
:10130000F3CF153269F4F3010680F781E02DFB83FA
:10131000EA83FAE0F8878FE7282E21E0298329C0A5
:10132000812F992787FD90950E949D0A892B99F01E
:10133000C3010E942E0A4C010E949D0A892BC1F70D
:101340003FEF83163FEF930609F441C0B301C40198
:101350000E94710A0EC0C3010E942E0A4C018F5FC9
:101360009F4FD1F0812F992787FD90958816990678
:1013700099F489859A8501969A878987F3018381F3
:1013800083FF04C0E985FA85149103C0A985BA8555
:101390001C91112309F0D5CDB9812B2F332720FFC4
:1013A00011C0F301868197814A815B8148175907F3
:1013B0004CF424FD05C08E819F8101969F838E830E
:1013C0001D821C829FEF89169FEF990621F4AE8142
:1013D000BF81AB2B49F0EE81FF81FD83EC8304C01C
:1013E000F9812F2F3327DDCF8C819D812A960FB66F
:1013F000F894DEBF0FBECDBFDF91CF911F910F914B
:10140000FF90EF90DF90CF90BF90AF909F908F9024
:101410007F906F905F904F903F902F900895FC01C8
:1014200005900020E9F7809590958E0F9F1F0895F5
:10143000FC010590615070400110D8F7809590959F
:101440008E0F9F1F0895FC016150704001900110A4
:10145000D8F7809590958E0F9F1F0895CF93DF93B7
:10146000EC012B81822F992780FF15C086FF0AC0CF
:101470002F7B2B838E819F8101969F838E838A8110
:1014800099272CC082FF12C0E881F98180818823CE
:1014900029F420622B838FEF9FEF20C0282F332762
:1014A00027FD30953196F983E88311C0EA85FB85E5
:1014B000CE0109959C0197FF0AC08B812F5F3F4F9A
:1014C00011F490E101C090E2892B8B83E4CF8E81EF
:1014D0009F8101969F838E83822F9927DF91CF91E1
:1014E0000895AC01FB012381822F992780FF12C050
:1014F00086FD10C08FEF4F3F580761F04283206494
:101500002F7D238386819781019797838683842FFC
:10151000992708958FEF9FEF08958F9306D08F91AD
:1015200009F08062089585FD17C08062911114C092
:101530008136ECF38B37DCF7089591110DC08032C2
:1015400051F08A3041F08C3031F08D3021F089300B
:1015500011F08B3099F70895992788270895629F95
:10156000D001739FF001829FE00DF11D649FE00D9B
:10157000F11D929FF00D839FF00D749FF00D659FFC
:10158000F00D9927729FB00DE11DF91F639FB00DFB
:10159000E11DF91FBD01CF0111240895A1E21A2E0A
:1015A000AA1BBB1BFD010DC0AA1FBB1FEE1FFF1F07
:1015B000A217B307E407F50720F0A21BB30BE40B57
:1015C000F50B661F771F881F991F1A9469F760959E
:1015D0007095809590959B01AC01BD01CF01089558
:0215E000FFCF3B
:1015E20048656C6C6F20776F726C64210A00556ECF
:1015F2006B6E6F776E20636F6D6D616E643A20253E
:10160200730A00252A7320257300476F74202573FF
:101612000A004F4B00737363616E6628292066616E
:10162200696C6564004279652D627965000A200063
:101632000000000300000000330255020000000019
:10164200000200000000EB01000000002A72696E37
:04165200672A0A00F9
:00000001FF
