:020000020000FC
:100000000C9439000C9438000C9438000C9438008F
:100010000C9438000C9438000C9438000C94380080
:100020000C9438000C9438000C9438000C94380070
:100030000C9438000C9438000C9438000C94380060
:100040000C9438000C9438000C9438000C94380050
:100050000C9438000C9438000C9438000C94380040
:100060000C9438000C9438000C9438000C94380030
:10007000189500E007B90FEF08B90AB906B10BB936
:02008000FDCFB2
:00000001FF
