:100000000C9438000C9455000C9455000C94550039
:100010000C9455000C9455000C9455000C9455000C
:100020000C9455000C9455000C9455000C94D6007B
:100030000C9455000C9455000C9455000C945500EC
:100040000C9455000C9455000C9455000C945500DC
:100050000C9455000C9455000C9455000C945500CC
:100060000C9455000C9455000C9455000C945500BC
:1000700011241FBECFEFD0E1DEBFCDBF11E0A0E065
:10008000B1E0ECE1F2E002C005900D92A230B107C0
:10009000D9F711E0A2E0B1E001C01D92A830B1078C
:1000A000E1F70E94C5000C940D010C9400009FEF35
:1000B00091B912B894B915B817B88FE388B99AB93D
:1000C0001BB80895F894E6EBF0E0808180628083AD
:1000D0001092B2001092B00081E08093B100809342
:1000E000700017BA7894089581E080930701809199
:1000F0000701882359F093E0809105018BB9892F7E
:100100008A95F1F7809107018823B1F7089586B1A8
:10011000806C809582B99091010195B9882319F07E
:10012000992309F508959923D1F0915090930101F5
:100130009F5F191634F580910101833099F79091F2
:1001400002019923C9F08091B200809303011092BB
:100150000201992339F781E080930201089582E03A
:100160008093010108959F5F909301019150943015
:1001700014F3109201010895809103018093B2005D
:10018000E6CF81E08093010108950E94570080919D
:1001900064008071809364000E94620083B7817F55
:1001A00083BF0E9487000E947400FBCF1F920F92B2
:1001B0000FB60F9211248F939F9310920701809195
:1001C0000201882319F1809104018F5F809304015B
:1001D000809104018038D1F41092040180910501CE
:1001E0008F5F80930501809105018C3379F4109223
:1001F0000501809106018F5F8093060190910601B1
:1002000080910001981711F4109206019F918F912F
:0C0210000F900FBE0F901F901895FFCFAD
:02021C000302DB
:00000001FF
