:100000000C9438000C9455000C9455000C94550039
:100010000C9455000C9455000C9455000C9455000C
:100020000C9455000C9455000C9455000C945500FC
:100030000C9455000C9455000C9455000C945500EC
:100040000C9455000C9455000C9455000C945500DC
:100050000C9455000C9455000C9455000C945500CC
:100060000C9455000C9455000C9455000C945500BC
:1000700011241FBECFEFD0E1DEBFCDBF11E0A0E065
:10008000B1E0E2EEF2E002C005900D92AE30B107B1
:10009000D9F711E0AEE0B1E001C01D92A431B10783
:1000A000E1F70E94D2000C9470010C9400001AB881
:1000B0008FEF8BB987B988B9089580EB84B980E553
:1000C0008CBD8DB58EB508958EBD0DB407FEFDCFE8
:1000D0008EB590E00895519A9093C5008093C40026
:1000E00086E08093C2001092C00088E18093C10036
:1000F0000895982F8091C00085FFFCCF9093C60093
:1001000008958091C00087FFFCCF8091C60090E0E9
:1001100008959C0102C0215030408091C00087FDAD
:1001200003C021153105B9F78091C00087FD03C0D8
:100130008FEF9FEF08958091C60090E008951F9380
:10014000E1E6F0E080E8808310821FEF18B917B96C
:1001500083E390E00E946B001AB81BB917B918B975
:1001600080EB84B980E58CBD8DB58EB51F91089567
:100170008091C0008078992787FD90950895982FE9
:100180008A3039F48091C00085FFFCCF8DE08093E8
:10019000C6008091C00085FFFCCF9093C60080E030
:1001A00090E008950E949F0080E091E090931101FB
:1001B0008093100190930F0180930E0111C08091E4
:1001C0000E0190910F010E94FD00282F209528B963
:1001D0008EBD0DB407FEFDCF8EB590E00E943D01AF
:1001E0008091C00087FDEBCFFBCF8091C00087FFDF
:1001F000FCCF8091C60090E00895CF93DF93EC018F
:100200002B8120FF14C026FF09C02F7B2B838E81FA
:100210009F8101969F838E838A812BC022FF12C00B
:10022000E881F9818081882329F420622B838FEF74
:100230009FEF20C0282F332727FD30953196F98373
:10024000E88311C0EA85FB85CE0109959C0197FFE3
:100250000AC09B812F5F3F4F11F480E101C080E213
:10026000892B8B83E4CF8E819F8101969F838E8320
:10027000822F90E0DF91CF910895609110017091ED
:1002800011010E94440108950F931F93CF93DF93B0
:100290008C01EB018B8181FF1BC082FF0DC02E8181
:1002A0003F818C819D812817390764F4E881F981A9
:1002B0000193F983E88306C0E885F985802F0995C5
:1002C000892B31F48E819F8101969F838E8302C09A
:1002D0000FEF1FEFC801DF91CF911F910F9108958C
:0202E000FFCF4E
:0E02E2000000000300000000BF00F500000057
:00000001FF
