:100000000C9432000C944F000C944F000C94FF00A1
:100010000C944F000C944F000C944F000C944F0024
:100020000C944F000C944F000C944F000C944F0014
:100030000C944F000C944F000C944F000C944F0004
:100040000C944F000C944F000C944F000C944F00F4
:100050000C944F007E285B6B2D67772A7F2F3F75AE
:100060005679571711241FBECFE5D4E0DEBFCDBFB0
:1000700010E0A0E6B0E0E6EBF7E002C005900D92DC
:10008000A236B107D9F710E0A2E6B0E001C01D9298
:10009000A538B107E1F70E94B0030C94D9030C9482
:1000A00000009FEF9ABB9BBB17BA18BA14BA8FE037
:1000B00085BB91BB12BA0895F89482B5886082BD61
:1000C00089E085BD88E893E129E130E0F9013197C5
:1000D000F1F70197D9F714BC8FE383BD80E889BF9E
:1000E00018BE7894089588E10FB6F89481BD11BCCC
:1000F0000FBE80E888B986B99FEF9ABB9BBB17BA41
:1001000018BA14BA8FE085BB91BB12BA0E945C008A
:1001100085B78F7485BF0895E0918300EE2339F091
:10012000F0E0EC5AFF4FE491E0937B0002C01092A4
:100130007B00E0916700FF27E7FDF095EC5AFF4F49
:10014000E491E0937C00E0916600FF27E7FDF095E5
:10015000EC5AFF4FE491E0937900E0916500E5955A
:10016000FF27E7FDF095EC5AFF4FE491E0937A000A
:10017000E0917100FF27E7FDF095EC5AFF4FE49105
:10018000E0937500E0917200FF27E7FDF095EC5ACF
:10019000FF4FE491E0937600E0917E00FF27E7FDBA
:1001A000F095EC5AFF4FE491E0937700E0917F00E7
:1001B000FF27E7FDF095EC5AFF4FE491E0937800BC
:1001C00012BA2091700081E090E002C0880F991F60
:1001D0002A95E2F780958BBBA0917000E0917000AA
:1001E000FF27E7FDF095E859FF4FBB27A7FDB09526
:1001F000AB58BF4F80819C91892B82BB08951F9281
:100200000F920FB60F9211248F93809170008F5F21
:100210008093700080917000883011F4109270000B
:10022000809162008823A9F1809164008F5F8093A0
:100230006400809164008F3F61F58091650081507A
:10024000809365008091650087FF23C083E18093E0
:100250006500809166008150809366008091660001
:1002600087FF17C085E0809366008091670081500A
:10027000809367008091670087FF0BC01092620037
:1002800081E08093630010926500109266001092E6
:1002900067008F910F900FBE0F901F901895B89820
:1002A00080E184BB82E08A95F1F783B380958F70FB
:1002B000823071F0833018F4813041F405C084300D
:1002C00049F0883019F408C091E007C09FEF05C0DD
:1002D0009AE003C094E001C097E080E284BB82E032
:1002E0008A95F1F783B380958F70823061F0833007
:1002F00018F4813069F405C0843039F0883041F455
:1003000006C093E005C09BE003C096E001C099E001
:10031000892F08950E944F01982F8F3F29F4109242
:1003200081008093800013C080918000981729F08D
:1003300090938000109281000AC0809181008F5FAD
:1003400080938100843018F084E080938100809154
:100350008100833009F09FEF892F089514BAB89A6D
:1003600082E08A95F1F783B380958F70823071F0C7
:10037000833018F4813041F405C0843049F088306E
:1003800019F406C082E008958FEF089580E0089583
:1003900085E008950E94AE01982F8F3F29F41092B6
:1003A00084008093730013C080917300981729F024
:1003B00090937300109284000AC0809184008F5F34
:1003C00080938400843018F084E0809384008091CE
:1003D00084008330A9F49530B1F420916200222387
:1003E00021F084B580937D0003C080917D0084BDA1
:1003F00010926200222339F481E08093620003C0EE
:10040000833008F49FEF892F0895FC0181818F5F6D
:1004100081838A3049F4118280818F5F80838A30A2
:1004200019F489E0818380830895FC0181818150E2
:10043000818387FF09C089E0818380818150808327
:1004400087FF02C0108211820895109268001092F6
:10045000690010926A0010926B0080E880936F0030
:1004600080936C0010926D0010926E0010927E00CE
:1004700010927F00109271001092720080916000C3
:1004800080936700109266001092650010927D00C4
:1004900080918300882319F081E080938300089580
:1004A0001F930E94CA01182F80916200882309F0CF
:1004B00055C10E948A01982F863009F483C0873085
:1004C00048F4833011F1843009F443C0813009F0DD
:1004D00045C110C0893009F4C7C08A3020F4873084
:1004E00009F03CC191C08A3009F4ECC08B3009F0AE
:1004F00035C103C1123031F41092740010928200A1
:10050000109283000E94250229C1123041F481E03B
:100510008093740080938300909382001FC181E0D8
:1005200080936700109266001092650080916900C8
:1005300090916B00892B09F011C18091700080FFB0
:1005400004C080E88093690009C180E880936B0053
:1005500005C1123071F480916A00803811F4109254
:100560006A0080916D00803809F0F8C010926D002B
:1005700009C080916A00803841F080916D00803818
:1005800021F080E880936A00E9C010926A0080E858
:1005900080936D00809172008F5F809372008A302B
:1005A00009F0DCC010927200809171008F5F80931F
:1005B00071008A3009F0D2C089E080937200809384
:1005C0007100CCC0123071F480916800803811F451
:1005D0001092680080916E00803809F0BFC01092C0
:1005E0006E0009C080916800803841F080916E00F3
:1005F000803821F080E880936800B0C010926800D5
:1006000080E880936E0018C01230B1F480917F00B2
:10061000815080937F0087FFA1C089E080937F0095
:1006200080917E00815080937E0087FF97C010925A
:100630007E0010927F0092C080917F008F5F809338
:100640007F008A3009F08AC010927F0080917E007E
:100650008F5F80937E008A3009F080C089E08093AC
:100660007F0080937E007AC01230A9F480917200DE
:1006700081508093720087FF71C0909372008091C7
:10068000710081508093710087FF68C010927100E3
:100690001092720063C0809172008F5F809372002D
:1006A0008A3009F05BC010927200809171008F5FF8
:1006B000809371008A3009F051C09093720090933A
:1006C00071004CC0123061F48091670081508093BA
:1006D00067008091670087FF41C0109267003EC0AD
:1006E000809167008F5F80936700809167008A30F8
:1006F000A9F589E08093670031C01230C9F4809178
:1007000065008250809365008091650087FF26C058
:1007100083E180936500809166008150809366003C
:100720008091660087FF1AC085E08093660016C03E
:10073000809165008E5F80936500809165008431B3
:100740006CF010926500809166008F5F8093660068
:1007500080916600863014F0109266001F91089513
:100760000E9473000E94250285B7806485BF88952A
:1007700085B78F7B85BF0E9450020E948C008091BC
:100780006300882389F31092630020917400213064
:1007900059F7809183008F5F80938300909182004E
:1007A000981710F420938300809160008093670075
:0607B000DBCFF894FFCF3F
:0207B60003003E
:00000001FF
