:100000000C9438000C9455000C9455000C94550039
:100010000C9455000C9455000C9455000C9455000C
:100020000C9455000C9455000C9455000C945500FC
:100030000C9455000C9455000C9455000C945500EC
:100040000C9455000C9455000C9455000C945500DC
:100050000C9455000C9455000C9455000C945500CC
:100060000C9455000C9455000C9455000C945500BC
:1000700011241FBECFEFD0E1DEBFCDBF11E0A0E065
:10008000B1E0E0E7F1E002C005900D92A030B107C9
:10009000D9F711E0A0E0B1E001C01D92A030B10796
:1000A000E1F70E948F000C94B7000C940000519A65
:1000B0009093C5008093C40086E08093C2001092A4
:1000C000C00088E18093C1000895982F8091C000FE
:1000D00085FFFCCF9093C60008958091C00087FFF4
:1000E000FCCF8091C600992708959C018091C000A3
:1000F00087FD0AC006C08091C00087FD05C0215061
:10010000304021153105B9F78091C00087FD03C04B
:100110008FEF9FEF08958091C600992708950F9360
:100120001F9380E880936100109261008FEF88B97F
:1001300087B983E390E00E94570000E20E946D00BF
:10014000182F809588B9812F81548A3150F4102757
:10015000812F0E9465001D3089F78AE00E946500AA
:10016000EDCF812F81568A3198F71F7DF1CFFFCFD8
:00000001FF
