:100000000C9438000C9455000C9455000C94550039
:100010000C9455000C9455000C9455000C9455000C
:100020000C9455000C9455000C9455000C945500FC
:100030000C9455000C9455000C9455000C945500EC
:100040000C9455000C9455000C9455000C945500DC
:100050000C9455000C9455000C9455000C945500CC
:100060000C9455000C9455000C9455000C945500BC
:1000700011241FBECFEFD0E1DEBFCDBF11E0A0E065
:10008000B1E0E6E5F2E102C005900D92A030B107C3
:10009000D9F711E0A0E0B1E001C01D92A030B10796
:1000A000E1F70E945F000C942A090C9400000E9462
:1000B000A50041E061E081E00E94EA0808950F9305
:1000C0001F93CF93DF93CDB7DEB721970FB6F89488
:1000D000DEBF0FBECDBF0E9457008E010F5F1F4FC6
:1000E0000E94FC008823E1F30E948B018823C1F366
:1000F00061E070E0C8010E94AF010E94B0048DE58C
:10010000982F9A95F1F7982F9A95F1F78A95F1F72C
:1001100082E48A95F1F70E948C0641E061E070E08C
:10012000C8010E94C7010E94FC008823E1F30E94DD
:100130008501882321F40E947F018823A1F30E9476
:10014000B00481E00E94B906CBCFCF93DF93CDB747
:10015000DEB721970FB6F894DEBF0FBECDBF80EBA0
:1001600084B980E58CBD8DB589838EB58983219650
:100170000FB6F894DEBF0FBECDBFDF91CF910895CB
:100180000DB407FC03C08FEF9FEF08958EB599273C
:1001900008958EBD0DB407FEFDCF8EB59927089545
:1001A0002B9808950E94D00008952B9A08950E94DC
:1001B000D5008AE18A95F1F70E94D00008950E9447
:1001C000D500089585B19927969587959695879539
:1001D000969587958170907008952C9808952C9A23
:1001E000089585B19927929582958F7089279F7080
:1001F000892781709070089585B186958695809540
:1002000081709927089599278E709070969587959B
:100210000895DF92EF92FF920F931F93CF93DF9396
:100220007B01D42E672BC9F0EC0100E010E00AC07E
:1002300088810E94C90088830F5F1F4F2196E016B6
:10024000F10659F0DD20A1F788810E94C9000F5FF7
:100250001F4F2196E016F106A9F7DF91CF911F916C
:100260000F91FF90EF90DF900895CF92DF92EF9281
:10027000FF920F931F93CF93DF93CDB7DEB72197F4
:100280000FB6F894DEBF0FBECDBFF82E6B018A010A
:10029000E22E0E94ED00F98241E061E070E0CE01C3
:1002A00001960E9409014E2DB801C6010E94090164
:1002B0000E94EF008981992721960FB6F894DEBF3E
:1002C0000FBECDBFDF91CF911F910F91FF90EF90A7
:1002D000DF90CF90089521E040E050E060E070E0D2
:1002E0008FEF0E943501992708950E946B0199278D
:1002F00008950E9475010E940301992708950E94A4
:10030000750199278071907008950E947501992751
:100310008072907008950E94750199278074907082
:10032000089521E040E050E060E070E083EE0E943C
:1003300035019927089521E040E050E060E070E049
:1003400082EE0E9435019927089521E040E050E0B7
:1003500060E070E081EE0E94350199270895EF92E8
:10036000FF920F931F938C017B010E94D00021E02C
:10037000A701B80181E60E943501182F0E94D5001F
:10038000812F99271F910F91FF90EF9008950F9360
:100390001F93142F20E0AB01BC0180EA0E943501BD
:1003A000082F113011F40E94D700802F99271F9138
:1003B0000F91089521E08F710E94350199270895CA
:1003C0006F927F928F929F92AF92BF92CF92DF9265
:1003D000EF92FF920F931F93CF93DF93CDB7DEB7CA
:1003E00025970FB6F894DEBF0FBECDBF4C01EE24AB
:1003F000FF2400E010E06E010894C11CD11C45E010
:1004000050E0B6018E2D0E94DA01F801E80DF91DC9
:100410008981808381E090E040E050E066EFA62E85
:100420006FEFB62EAE0CBF1CB601680F791F3F01EF
:100430009A01DA01AC0DBD1D2F5F3F4F1196089454
:10044000611C711C2115310519F1041B150B020FDC
:10045000131F82E0A816B10420F0E0E1EE16F104CB
:10046000F1F4F801E80DF91D8C918083A8014F5F2C
:100470005F4FC90101968530910580F4A901B6014D
:10048000680F791F3F019A01DA01AC0DBD1DD4CF71
:10049000FB018191BF01F3018083CECF8A010894D3
:1004A000E11CF11CF8E1EF16F10409F0A8CF259644
:1004B0000FB6F894DEBF0FBECDBFDF91CF911F9175
:1004C0000F91FF90EF90DF90CF90BF90AF909F90F3
:1004D0008F907F906F900895CF93DF93CDB7DEB765
:1004E00021970FB6F894DEBF0FBECDBF41E050E0BC
:1004F000BE016F5F7F4F87E10E94DA0189819927F2
:100500008170907021960FB6F894DEBF0FBECDBFFC
:10051000DF91CF910895CF93DF93CDB7DEB72197C9
:100520000FB6F894DEBF0FBECDBF41E050E0BE0174
:100530006F5F7F4F87E10E94DA018981992782707E
:10054000907021960FB6F894DEBF0FBECDBFDF913D
:10055000CF910895CF93DF93CDB7DEB721970FB634
:10056000F894DEBF0FBECDBF41E050E0BE016F5F2B
:100570007F4F87E10E94DA0189819927807190700D
:1005800021960FB6F894DEBF0FBECDBFDF91CF919D
:100590000895CF93DF93CDB7DEB721970FB6F894C8
:1005A000DEBF0FBECDBF41E050E0BE016F5F7F4FA9
:1005B00087E10E94DA0189819927807290702196E3
:1005C0000FB6F894DEBF0FBECDBFDF91CF91089577
:1005D000CF93DF93CDB7DEB721970FB6F894DEBF88
:1005E0000FBECDBF41E050E0BE016F5F7F4F87E19E
:1005F0000E94DA01898199278074907021960FB644
:10060000F894DEBF0FBECDBFDF91CF910895CF9399
:10061000DF93CDB7DEB721970FB6F894DEBF0FBEDC
:10062000CDBF41E050E0BE016F5F7F4F87E10E9488
:10063000DA018981992721960FB6F894DEBF0FBEA3
:10064000CDBFDF91CF910895CF93DF93CDB7DEB7C4
:1006500021970FB6F894DEBF0FBECDBF41E050E04A
:10066000BE016F5F7F4F89E00E94DA01898199277F
:1006700021960FB6F894DEBF0FBECDBFDF91CF91AC
:1006800008951F93CF93DF93CDB7DEB721970FB6B1
:10069000F894DEBF0FBECDBF182F863018F080E073
:1006A00090E013C041E050E0BE016F5F7F4F82E0F9
:1006B0000E94DA0181E090E002C0880F991F1A952C
:1006C000E2F729812823822F992721960FB6F894E3
:1006D000DEBF0FBECDBFDF91CF911F9108951F9355
:1006E000CF93DF93CDB7DEB721970FB6F894DEBF77
:1006F0000FBECDBF182F863018F080E090E013C0F9
:1007000041E050E0BE016F5F7F4F81E00E94DA015F
:1007100081E090E002C0880F991F1A95E2F72981C5
:100720002823822F992721960FB6F894DEBF0FBE9B
:10073000CDBFDF91CF911F910895CF93DF93CDB7B8
:10074000DEB721970FB6F894DEBF0FBECDBF41E0F4
:1007500050E0BE016F5F7F4F88E00E94DA0189811F
:1007600099278F70907021960FB6F894DEBF0FBE58
:10077000CDBFDF91CF910895CF93DF93CDB7DEB793
:1007800021970FB6F894DEBF0FBECDBF41E050E019
:10079000BE016F5F7F4F88E00E94DA0189818295F8
:1007A0008F70992721960FB6F894DEBF0FBECDBF8C
:1007B000DF91CF910895CF93DF93CDB7DEB7219727
:1007C0000FB6F894DEBF0FBECDBF41E050E0BE01D2
:1007D0006F5F7F4F88E00E94DA0189819927219617
:1007E0000FB6F894DEBF0FBECDBFDF91CF91089555
:1007F000CF93DF93CDB7DEB721970FB6F894DEBF66
:100800000FBECDBF41E050E0BE016F5F7F4F85E07E
:100810000E94DA018981992721960FB6F894DEBFEC
:100820000FBECDBFDF91CF910895CF93DF93CDB7AA
:10083000DEB721970FB6F894DEBF0FBECDBF41E003
:1008400050E0BE016F5F7F4F80E00E94DA01898136
:10085000992721960FB6F894DEBF0FBECDBFDF916A
:10086000CF910895CF93DF93CDB7DEB721970FB621
:10087000F894DEBF0FBECDBF863008F00AC041E05D
:1008800050E0BE016F5F7F4F8F5E0E94DA01898169
:10089000992721960FB6F894DEBF0FBECDBFDF912A
:1008A000CF9108958F7120E080620E9435019927D1
:1008B0000895CF93DF93CDB7DEB721970FB6F894A5
:1008C000DEBF0FBECDBF80E1898341E050E0BE01B5
:1008D0006F5F7F4F87E00E94520421960FB6F89415
:1008E000DEBF0FBECDBFDF91CF910895CF93DF93D1
:1008F000CDB7DEB721970FB6F894DEBF0FBECDBFE0
:1009000080E2898341E050E0BE016F5F7F4F87E066
:100910000E94520421960FB6F894DEBF0FBECDBFE1
:10092000DF91CF910895CF93DF93CDB7DEB72197B5
:100930000FB6F894DEBF0FBECDBF80E4898341E0DF
:1009400050E0BE016F5F7F4F87E00E945204219606
:100950000FB6F894DEBF0FBECDBFDF91CF910895E3
:10096000CF93DF93CDB7DEB721970FB6F894DEBFF4
:100970000FBECDBF80E7898341E050E0BE016F5FCD
:100980007F4F87E00E94520421960FB6F894DEBF95
:100990000FBECDBFDF91CF9108950E949B010E94B1
:1009A000A5010E94B0040895EF92FF921F93CF9388
:1009B000DF93CDB7DEB721970FB6F894DEBF0FBE39
:1009C000CDBF182F863038F541E050E07E01089405
:1009D000E11CF11CB70182E00E94DA014981212F5C
:1009E0003327842F9927022E02C0959587950A9464
:1009F000E2F780FF10C081E090E002C0880F991FED
:100A00002A95E2F780958423898341E050E0B7017D
:100A100082E00E94520421960FB6F894DEBF0FBE0A
:100A2000CDBFDF91CF911F91FF90EF900895EF928E
:100A3000FF921F93CF93DF93CDB7DEB721970FB609
:100A4000F894DEBF0FBECDBF182F863030F541E0E1
:100A500050E07E010894E11CF11CB70182E00E9485
:100A6000DA014981212F3327842F9927022E02C0D2
:100A7000959587950A94E2F780FD0FC081E090E09C
:100A800002C0880F991F2A95E2F7482B498341E05D
:100A900050E0B70182E00E94520421960FB6F8940C
:100AA000DEBF0FBECDBFDF91CF911F91FF90EF90C2
:100AB0000895EF92FF921F93CF93DF93CDB7DEB7E8
:100AC00021970FB6F894DEBF0FBECDBF182F86302A
:100AD00038F541E050E07E010894E11CF11CB701BB
:100AE00081E00E94DA014981212F3327842F992741
:100AF000022E02C0959587950A94E2F780FF10C0F8
:100B000081E090E002C0880F991F2A95E2F7809556
:100B10008423898341E050E0B70181E00E945204C0
:100B200021960FB6F894DEBF0FBECDBFDF91CF91F7
:100B30001F91FF90EF900895EF92FF921F93CF9334
:100B4000DF93CDB7DEB721970FB6F894DEBF0FBEA7
:100B5000CDBF182F863030F541E050E07E0108947B
:100B6000E11CF11CB70181E00E94DA014981212FCB
:100B70003327842F9927022E02C0959587950A94D2
:100B8000E2F780FD0FC081E090E002C0880F991F5E
:100B90002A95E2F7482B498341E050E0B70181E014
:100BA0000E94520421960FB6F894DEBF0FBECDBF4F
:100BB000DF91CF911F91FF90EF900895CF93DF9336
:100BC000CDB7DEB721970FB6F894DEBF0FBECDBF0D
:100BD000898341E050E0BE016F5F7F4F85E00E9456
:100BE000520421960FB6F894DEBF0FBECDBFDF9141
:100BF000CF9108950F931F93CF93DF93CDB7DEB7B7
:100C000021970FB6F894DEBF0FBECDBF41E050E094
:100C10008E010F5F1F4FB80185E00E94DA0141E0AD
:100C200050E0B80185E00E94520421960FB6F89476
:100C3000DEBF0FBECDBFDF91CF911F910F91089501
:100C4000CF93DF93CDB7DEB721970FB6F894DEBF11
:100C50000FBECDBF8F77898341E050E0BE016F5F4B
:100C60007F4F85E00E94520421960FB6F894DEBFB4
:100C70000FBECDBFDF91CF910895CF93DF93CDB756
:100C8000DEB721970FB6F894DEBF0FBECDBF8983C4
:100C900041E050E0BE016F5F7F4F80E00E94520450
:100CA00021960FB6F894DEBF0FBECDBFDF91CF9176
:100CB0000895CF93DF93CDB7DEB721970FB6F894A1
:100CC000DEBF0FBECDBF8983962F663058F48132C8
:100CD00048F441E050E0BE016F5F7F4F892F8F5E87
:100CE0000E94520421960FB6F894DEBF0FBECDBF0E
:100CF000DF91CF910895242F463008F00895AB017D
:100D0000BC01822F865F0E9452040895AB01BC0192
:100D100080E10E94520408950F931F93CF93DF93B5
:100D2000CDB7DEB721970FB6F894DEBF0FBECDBFAB
:100D300041E050E08E010F5F1F4FB80180E00E943C
:100D4000DA01898180FF0AC08E7F898341E050E00B
:100D5000B80180E00E9452040E94D00021960FB694
:100D6000F894DEBF0FBECDBFDF91CF911F910F91E1
:100D70000895FF920F931F93CF93DF93CDB7DEB704
:100D800021970FB6F894DEBF0FBECDBFF82E41E01D
:100D900050E08E010F5F1F4FB80180E00E94DA0122
:100DA000898180FD0FC08160898341E050E0B801F6
:100DB00080E00E945204FF2019F00E94D50002C07A
:100DC0000E94D00021960FB6F894DEBF0FBECDBFB3
:100DD000DF91CF911F910F91FF900895CF93DF93F3
:100DE000CDB7DEB721970FB6F894DEBF0FBECDBFEB
:100DF0008D7F898341E050E0BE016F5F7F4F80E0CF
:100E00000E9452040E94D00021960FB6F894DEBFD3
:100E10000FBECDBFDF91CF9108950F931F93CF9356
:100E2000DF93CDB7DEB721970FB6F894DEBF0FBEC4
:100E3000CDBF41E050E08E010F5F1F4FB80180E051
:100E40000E94DA01898181FF0AC08D7F898341E098
:100E500050E0B80180E00E9452040E94D000219628
:100E60000FB6F894DEBF0FBECDBFDF91CF911F91BB
:100E70000F9108951F93CF93DF93CDB7DEB72197DE
:100E80000FB6F894DEBF0FBECDBF182F862F82603D
:100E9000898341E050E0BE016F5F7F4F80E00E9498
:100EA000520488EB9BE00197F1F7898180FF02C033
:100EB000112319F40E94D00002C00E94D50021968F
:100EC0000FB6F894DEBF0FBECDBFDF91CF911F915B
:100ED0000895682F6E7F61FF04C080E00E943A078A
:100EE0000895862F0E94EE060895616061FF03C099
:100EF0000E943A070895862F0E94EE060895FF92F9
:100F00000F931F93CF93DF93CDB7DEB721970FB623
:100F1000F894DEBF0FBECDBFF82E41E050E08E0149
:100F20000F5F1F4FB80180E00E94DA01898181FDC7
:100F300016C08260898341E050E0B80180E00E94E1
:100F4000520488EB9BE00197F1F7898180FF02C092
:100F5000FF2019F40E94D00002C00E94D500219603
:100F60000FB6F894DEBF0FBECDBFDF91CF911F91BA
:100F70000F91FF9008951F93CF93DF93CDB7DEB706
:100F800021970FB6F894DEBF0FBECDBF69838823CB
:100F900011F019E001C018E041E050E0BE016F5FC0
:100FA0007F4F81E10E945204612F81E00E943A0745
:100FB00021960FB6F894DEBF0FBECDBFDF91CF9163
:100FC0001F9108952F923F924F925F926F927F925E
:100FD0008F929F92AF92CF92DF92EF92FF920F93F8
:100FE0001F93CF93DF93CDB7DEB725970FB6F89455
:100FF000DEBF0FBECDBFF82ED62E122F3401498C86
:101000005A8C2F8C38A0498341E050E04E0108945F
:10101000811C911CB40181E00E945204198341E0BB
:1010200050E0B40182E00E945204098341E050E0A4
:10103000B40183E00E945204E98241E050E0B4012F
:1010400084E00E945204C98241E050E0B40185E08E
:101050000E945204A98241E050E0B40186E00E945F
:1010600052046114710409F474C040E065E070E05A
:10107000C3010E947B064114510409F47AC041E087
:1010800065E070E0C2010E947B068B8D898342E09F
:1010900061E070E0C4010E947B068C8D898343E08F
:1010A00061E070E0C4010E947B068D8D898344E07D
:1010B00061E070E0C4010E947B068E8D898345E06B
:1010C00061E070E0C4010E947B062114310409F440
:1010D0005DC065E070E0C1010E94860689A1898338
:1010E00041E050E0B40181E10E9452048AA1898369
:1010F00041E050E0B40182E10E9452048BA1898357
:1011000041E050E0B40183E10E9452048CA1898344
:1011100041E050E0B40184E10E9452048DA1898332
:1011200041E050E0B40185E10E9452048EA1898320
:1011300041E050E0B40186E10E945204F1FE05C096
:101140006F2D8D2D0E943A072DC08F2D0E94EE0627
:1011500029C087EE89838A838B838C838D8340E0CB
:1011600065E070E0C4010E947B064114510409F05F
:1011700086CF82EC89838A838B838C838D8341E045
:1011800065E070E0C4010E947B067FCF87EE898313
:101190008A838B838C838D8365E070E0C4010E9419
:1011A00086069CCF25960FB6F894DEBF0FBECDBF46
:1011B000DF91CF911F910F91FF90EF90DF90CF9033
:1011C000AF909F908F907F906F905F904F903F90E7
:1011D0002F9008958F929F92AF92CF92EF920F939C
:1011E000813031F03AE090E0442321F091E002C0F8
:1011F0003BE0F9CF1F921F921F921F921F926F9395
:101200001F921F9286EC8F9385EC8F9384EC8F93C3
:1012100083EC8F931F921F9288249924FFE0AF2EB6
:10122000E2E0CE2E73E0E72E03E023E0492F61E0F9
:10123000832F0E94E2078DB79EB70E960FB6F894E3
:101240009EBF0FBE8DBF0F91EF90CF90AF909F903C
:061250008F900895FFCF0E
:00000001FF
