:100000000C9445000C9462000C9462000C94620005
:100010000C9462000C9462000C9462000C946200D8
:100020000C9462000C9462000C9462000C946200C8
:100030000C9462000C9462000C9462000C946200B8
:100040000C9462000C9462000C9462000C946200A8
:100050000C9462000C9462000C9462000C94620098
:100060000C9462000C9462000C9462000C94620088
:1000700020747970652063686172616374657220B1
:10008000746F2073656E64200A0011241FBECFEFC9
:10009000D0E1DEBFCDBF11E0A0E0B1E0E4E4FBE1E0
:1000A00002C005900D92AE30B107D9F711E0AEE075
:1000B000B1E001C01D92A431B107E1F70E948700B1
:1000C0000C94A10D0C940000E1E6F0E080E8808340
:1000D00010828FEF87B90E94A7090E94120141E0A8
:1000E00061E080E00E94670908950E94C70999278E
:1000F00008951F93182F8A3019F48DE00E94B709D4
:10010000812F0E94B70980E090E01F910895CF925F
:10011000DF92FF920F931F93CF93DF93CDB7DEB79C
:1001200021970FB6F894DEBF0FBECDBF0E946400CA
:1001300080E091E0909311018093100190930F0162
:1001400080930E0180E790E09F938F930E94320A84
:100150000F900F906E010894C11CD11C8DE5F82EF4
:100160000E94CF098823E1F380910E0190910F0145
:100170000E94EF09898388B941E061E070E0C6011F
:100180000E9436020E946B018823E1F30E94F40171
:10019000882321F40E94EE018823A1F30E94EE013E
:1001A000882351F50E941F0581E00E94280700E086
:1001B00010E00E946B01882341F581E6073A180799
:1001C00071F10F5F1F4F81E6083A180791F70E94FF
:1001D0001F05898199270E94610A8F2D8A95F1F761
:1001E0008F2D8A95F1F78F2D8A95F1F782E48A9504
:1001F000F1F70E94FB06B4CF0E9414020E941F0573
:100200008AE290E00E94610AABCF0E94FA01882343
:10021000A1F261E070E0C6010E941E02D8CF8FE318
:100220008983D5CFCF93DF93CDB7DEB721970FB6B4
:10023000F894DEBF0FBECDBF88EB84B984E585B9E5
:1002400081E58CBD8DB589838EB5898321960FB6E6
:10025000F894DEBF0FBECDBFDF91CF9108950DB4EE
:1002600007FC03C08FEF9FEF08958EB5992708957F
:100270008EBD0DB407FEFDCF8EB5992708952B983E
:1002800008950E943F0108952B9A08950E94440109
:100290008AE18A95F1F70E943F0108950E94440186
:1002A000089585B199279695879596958795969502
:1002B00087958170907008952C9808952C9A0895D0
:1002C00085B19927929582958F7089279F7089278C
:1002D00081709070089583B1869586958095817020
:1002E0009927089599278E7090709695879508950F
:1002F000DF92EF92FF920F931F93CF93DF937B01D7
:10030000D42E672BC9F0EC0100E010E00AC0888110
:100310000E94380188830F5F1F4F2196E016F10677
:1003200059F0DD20A1F788810E9438010F5F1F4F2F
:100330002196E016F106A9F7DF91CF911F910F9159
:10034000FF90EF90DF900895CF92DF92EF92FF92AF
:100350000F931F93CF93DF93CDB7DEB721970FB6DF
:10036000F894DEBF0FBECDBFF82E6B018A01E22EDE
:100370000E945C01F98241E061E070E0CE010196EB
:100380000E9478014E2DB801C6010E9478010E949A
:100390005E018981992721960FB6F894DEBF0FBEC2
:1003A000CDBFDF91CF911F910F91FF90EF90DF9024
:1003B000CF90089521E040E050E060E070E08FEFE2
:1003C0000E94A401992708950E94DA0199270895AF
:1003D0000E94E4010E947201992708950E94E4019D
:1003E00099278071907008950E94E4019927807286
:1003F000907008950E94E401992780749070089588
:1004000021E040E050E060E070E083EE0E94A40153
:100410009927089521E040E050E060E070E082EE2E
:100420000E94A4019927089521E040E050E060E097
:1004300070E081EE0E94A40199270895EF92FF9247
:100440000F931F938C017B010E943F0121E0A701C4
:10045000B80181E60E94A401182F0E944401812F57
:1004600099271F910F91FF90EF9008950F931F937D
:10047000142F20E0AB01BC0180EA0E94A401082FE8
:10048000113011F40E944601802F99271F910F917E
:10049000089521E08F710E94A401992708956F9219
:1004A0007F928F929F92AF92BF92CF92DF92EF9204
:1004B000FF920F931F93CF93DF93CDB7DEB72597AE
:1004C0000FB6F894DEBF0FBECDBF4C01EE24FF2463
:1004D00000E010E06E010894C11CD11C45E050E022
:1004E000B6018E2D0E944902F801E80DF91D89819F
:1004F000808381E090E040E050E066EFA62E6FEF51
:10050000B62EAE0CBF1CB601680F791F3F019A01D1
:10051000DA01AC0DBD1D2F5F3F4F11960894611C91
:10052000711C2115310519F1041B150B020F131F46
:1005300082E0A816B10420F0E0E1EE16F104F1F437
:10054000F801E80DF91D8C918083A8014F5F5F4F82
:10055000C90101968530910580F4A901B601680FA3
:10056000791F3F019A01DA01AC0DBD1DD4CFFB010B
:100570008191BF01F3018083CECF8A010894E11CF1
:10058000F11CF8E1EF16F10409F0A8CF25960FB69B
:10059000F894DEBF0FBECDBFDF91CF911F910F91B9
:1005A000FF90EF90DF90CF90BF90AF909F908F9093
:1005B0007F906F900895CF93DF93CDB7DEB72197EB
:1005C0000FB6F894DEBF0FBECDBF41E050E0BE01D4
:1005D0006F5F7F4F87E10E9449028981992781706F
:1005E000907021960FB6F894DEBF0FBECDBFDF919D
:1005F000CF910895CF93DF93CDB7DEB721970FB694
:10060000F894DEBF0FBECDBF41E050E0BE016F5F8A
:100610007F4F87E10E9449028981992782709070FB
:1006200021960FB6F894DEBF0FBECDBFDF91CF91FC
:100630000895CF93DF93CDB7DEB721970FB6F89427
:10064000DEBF0FBECDBF41E050E0BE016F5F7F4F08
:1006500087E10E94490289819927807190702196D3
:100660000FB6F894DEBF0FBECDBFDF91CF910895D6
:10067000CF93DF93CDB7DEB721970FB6F894DEBFE7
:100680000FBECDBF41E050E0BE016F5F7F4F87E1FD
:100690000E944902898199278072907021960FB635
:1006A000F894DEBF0FBECDBFDF91CF910895CF93F9
:1006B000DF93CDB7DEB721970FB6F894DEBF0FBE3C
:1006C000CDBF41E050E0BE016F5F7F4F87E10E94E8
:1006D0004902898199278074907021960FB6F89409
:1006E000DEBF0FBECDBFDF91CF910895CF93DF93D3
:1006F000CDB7DEB721970FB6F894DEBF0FBECDBFE2
:1007000041E050E0BE016F5F7F4F87E10E944902E8
:100710008981992721960FB6F894DEBF0FBECDBF11
:10072000DF91CF910895CF93DF93CDB7DEB72197B7
:100730000FB6F894DEBF0FBECDBF41E050E0BE0162
:100740006F5F7F4F89E00E94490289819927219636
:100750000FB6F894DEBF0FBECDBFDF91CF910895E5
:100760001F93CF93DF93CDB7DEB721970FB6F894E1
:10077000DEBF0FBECDBF182F863018F080E090E0AE
:1007800013C041E050E0BE016F5F7F4F82E00E94E6
:10079000490281E090E002C0880F991F1A95E2F7A4
:1007A00029812823822F992721960FB6F894DEBF3E
:1007B0000FBECDBFDF91CF911F9108951F93CF93AF
:1007C000DF93CDB7DEB721970FB6F894DEBF0FBE2B
:1007D000CDBF182F863018F080E090E013C041E0C4
:1007E00050E0BE016F5F7F4F81E00E94490281E0CF
:1007F00090E002C0880F991F1A95E2F729812823FB
:10080000822F992721960FB6F894DEBF0FBECDBF79
:10081000DF91CF911F910895CF93DF93CDB7DEB7CE
:1008200021970FB6F894DEBF0FBECDBF41E050E078
:10083000BE016F5F7F4F88E00E944902898199273E
:100840008F70907021960FB6F894DEBF0FBECDBFAB
:10085000DF91CF910895CF93DF93CDB7DEB7219786
:100860000FB6F894DEBF0FBECDBF41E050E0BE0131
:100870006F5F7F4F88E00E944902898182958F7067
:10088000992721960FB6F894DEBF0FBECDBFDF913A
:10089000CF910895CF93DF93CDB7DEB721970FB6F1
:1008A000F894DEBF0FBECDBF41E050E0BE016F5FE8
:1008B0007F4F88E00E9449028981992721960FB6CF
:1008C000F894DEBF0FBECDBFDF91CF910895CF93D7
:1008D000DF93CDB7DEB721970FB6F894DEBF0FBE1A
:1008E000CDBF41E050E0BE016F5F7F4F85E00E94C9
:1008F00049028981992721960FB6F894DEBF0FBE71
:10090000CDBFDF91CF910895CF93DF93CDB7DEB701
:1009100021970FB6F894DEBF0FBECDBF41E050E087
:10092000BE016F5F7F4F80E00E9449028981992755
:1009300021960FB6F894DEBF0FBECDBFDF91CF91E9
:100940000895CF93DF93CDB7DEB721970FB6F89414
:10095000DEBF0FBECDBF863008F00AC041E050E0D8
:10096000BE016F5F7F4F8F5E0E9449028981992788
:1009700021960FB6F894DEBF0FBECDBFDF91CF91A9
:1009800008958F7120E080620E94A4019927089544
:10099000CF93DF93CDB7DEB721970FB6F894DEBFC4
:1009A0000FBECDBF80E1898341E050E0BE016F5FA3
:1009B0007F4F87E00E94C10421960FB6F894DEBFF6
:1009C0000FBECDBFDF91CF910895CF93DF93CDB709
:1009D000DEB721970FB6F894DEBF0FBECDBF80E221
:1009E000898341E050E0BE016F5F7F4F87E00E9446
:1009F000C10421960FB6F894DEBF0FBECDBFDF91C4
:100A0000CF910895CF93DF93CDB7DEB721970FB67F
:100A1000F894DEBF0FBECDBF80E4898341E050E093
:100A2000BE016F5F7F4F87E00E94C10421960FB621
:100A3000F894DEBF0FBECDBFDF91CF910895CF9365
:100A4000DF93CDB7DEB721970FB6F894DEBF0FBEA8
:100A5000CDBF80E7898341E050E0BE016F5F7F4FEB
:100A600087E00E94C10421960FB6F894DEBF0FBE46
:100A7000CDBFDF91CF9108950E940A020E94140217
:100A80000E941F050895EF92FF921F93CF93DF936B
:100A9000CDB7DEB721970FB6F894DEBF0FBECDBF3E
:100AA000182F863038F541E050E07E010894E11CB3
:100AB000F11CB70182E00E9449024981212F3327AE
:100AC000842F9927022E02C0959587950A94E2F704
:100AD00080FF10C081E090E002C0880F991F2A9526
:100AE000E2F780958423898341E050E0B70182E0FA
:100AF0000E94C10421960FB6F894DEBF0FBECDBF91
:100B0000DF91CF911F91FF90EF900895EF92FF92A8
:100B10001F93CF93DF93CDB7DEB721970FB6F8942D
:100B2000DEBF0FBECDBF182F863030F541E050E05C
:100B30007E010894E11CF11CB70182E00E94490289
:100B40004981212F3327842F9927022E02C09595A2
:100B500087950A94E2F780FD0FC081E090E002C023
:100B6000880F991F2A95E2F7482B498341E050E00E
:100B7000B70182E00E94C10421960FB6F894DEBF4F
:100B80000FBECDBFDF91CF911F91FF90EF900895E1
:100B9000EF92FF921F93CF93DF93CDB7DEB72197EC
:100BA0000FB6F894DEBF0FBECDBF182F863038F5D4
:100BB00041E050E07E010894E11CF11CB70181E0A6
:100BC0000E9449024981212F3327842F9927022E21
:100BD00002C0959587950A94E2F780FF10C081E0E6
:100BE00090E002C0880F991F2A95E2F78095842330
:100BF000898341E050E0B70181E00E94C104219661
:100C00000FB6F894DEBF0FBECDBFDF91CF911F911D
:100C1000FF90EF900895EF92FF921F93CF93DF9391
:100C2000CDB7DEB721970FB6F894DEBF0FBECDBFAC
:100C3000182F863030F541E050E07E010894E11C29
:100C4000F11CB70181E00E9449024981212F33271D
:100C5000842F9927022E02C0959587950A94E2F772
:100C600080FD0FC081E090E002C0880F991F2A9597
:100C7000E2F7482B498341E050E0B70181E00E9450
:100C8000C10421960FB6F894DEBF0FBECDBFDF9131
:100C9000CF911F91FF90EF900895CF93DF93CDB741
:100CA000DEB721970FB6F894DEBF0FBECDBF8983A4
:100CB00041E050E0BE016F5F7F4F85E00E94C104BC
:100CC00021960FB6F894DEBF0FBECDBFDF91CF9156
:100CD00008950F931F93CF93DF93CDB7DEB721977E
:100CE0000FB6F894DEBF0FBECDBF41E050E08E01DD
:100CF0000F5F1F4FB80185E00E94490241E050E0BC
:100D0000B80185E00E94C10421960FB6F894DEBFB9
:100D10000FBECDBFDF91CF911F910F910895CF935B
:100D2000DF93CDB7DEB721970FB6F894DEBF0FBEC5
:100D3000CDBF8F77898341E050E0BE016F5F7F4F69
:100D400085E00E94C10421960FB6F894DEBF0FBE65
:100D5000CDBFDF91CF910895CF93DF93CDB7DEB7AD
:100D600021970FB6F894DEBF0FBECDBF898341E057
:100D700050E0BE016F5F7F4F80E00E94C10421966A
:100D80000FB6F894DEBF0FBECDBFDF91CF910895AF
:100D9000CF93DF93CDB7DEB721970FB6F894DEBFC0
:100DA0000FBECDBF8983962F663058F4813248F448
:100DB00041E050E0BE016F5F7F4F892F8F5E0E9440
:100DC000C10421960FB6F894DEBF0FBECDBFDF91F0
:100DD000CF910895242F463008F00895AB01BC014F
:100DE000822F865F0E94C1040895AB01BC0180E19F
:100DF0000E94C10408950F931F93CF93DF93CDB743
:100E0000DEB721970FB6F894DEBF0FBECDBF41E02D
:100E100050E08E010F5F1F4FB80180E00E94490231
:100E2000898180FF0AC08E7F898341E050E0B8014C
:100E300080E00E94C1040E943F0121960FB6F89401
:100E4000DEBF0FBECDBFDF91CF911F910F910895EF
:100E5000FF920F931F93CF93DF93CDB7DEB7219708
:100E60000FB6F894DEBF0FBECDBFF82E41E050E0C4
:100E70008E010F5F1F4FB80180E00E9449028981F7
:100E800080FD0FC08160898341E050E0B80180E0BF
:100E90000E94C104FF2019F00E94440102C00E9478
:100EA0003F0121960FB6F894DEBF0FBECDBFDF9194
:100EB000CF911F910F91FF900895CF93DF93CDB7FE
:100EC000DEB721970FB6F894DEBF0FBECDBF8D7F82
:100ED000898341E050E0BE016F5F7F4F80E00E9458
:100EE000C1040E943F0121960FB6F894DEBF0FBEE9
:100EF000CDBFDF91CF9108950F931F93CF93DF93D1
:100F0000CDB7DEB721970FB6F894DEBF0FBECDBFC9
:100F100041E050E08E010F5F1F4FB80180E00E945A
:100F20004902898181FF0AC08D7F898341E050E0B9
:100F3000B80180E00E94C1040E943F0121960FB6D3
:100F4000F894DEBF0FBECDBFDF91CF911F910F91FF
:100F500008951F93CF93DF93CDB7DEB721970FB6D8
:100F6000F894DEBF0FBECDBF182F862F8260898315
:100F700041E050E0BE016F5F7F4F80E00E94C104FE
:100F800020E030E090E5892F8A95F1F72F5F3F4F01
:100F900022333105C1F7898180FF02C0112319F482
:100FA0000E943F0102C00E94440121960FB6F894AE
:100FB000DEBF0FBECDBFDF91CF911F910895682F87
:100FC0006E7F61FF04C080E00E94A9070895862F0C
:100FD0000E945D070895616061FF03C00E94A90738
:100FE0000895862F0E945D070895FF920F931F9327
:100FF000CF93DF93CDB7DEB721970FB6F894DEBF5E
:101000000FBECDBFF82E41E050E08E010F5F1F4FA5
:10101000B80180E00E944902898181FD1DC0826083
:10102000898341E050E0B80180E00E94C10420E0E3
:1010300030E090E5892F8A95F1F72F5F3F4F2233FB
:101040003105C1F7898180FF02C0FF2019F40E9499
:101050003F0102C00E94440121960FB6F894DEBF02
:101060000FBECDBFDF91CF911F910F91FF900895DB
:101070001F93CF93DF93CDB7DEB721970FB6F894C8
:10108000DEBF0FBECDBF6983882311F019E001C018
:1010900018E041E050E0BE016F5F7F4F81E10E94A8
:1010A000C104612F81E00E94A90721960FB6F89430
:1010B000DEBF0FBECDBFDF91CF911F9108952F925C
:1010C0003F924F925F926F927F928F929F92AF92D8
:1010D000CF92DF92EF92FF920F931F93CF93DF9304
:1010E000CDB7DEB725970FB6F894DEBF0FBECDBFE4
:1010F000F82ED62E122F3401498C5A8C2F8C38A002
:10110000498341E050E04E010894811C911CB401D8
:1011100081E00E94C104198341E050E0B40182E003
:101120000E94C104098341E050E0B40183E00E94C1
:10113000C104E98241E050E0B40184E00E94C104AE
:10114000C98241E050E0B40185E00E94C104A98257
:1011500041E050E0B40186E00E94C10461147104D2
:1011600009F474C040E065E070E0C3010E94EA0643
:101170004114510409F47AC041E065E070E0C20115
:101180000E94EA068B8D898342E061E070E0C40131
:101190000E94EA068C8D898343E061E070E0C4011F
:1011A0000E94EA068D8D898344E061E070E0C4010D
:1011B0000E94EA068E8D898345E061E070E0C401FB
:1011C0000E94EA062114310409F45DC065E070E074
:1011D000C1010E94F50689A1898341E050E0B40174
:1011E00081E10E94C1048AA1898341E050E0B401F9
:1011F00082E10E94C1048BA1898341E050E0B401E7
:1012000083E10E94C1048CA1898341E050E0B401D4
:1012100084E10E94C1048DA1898341E050E0B401C2
:1012200085E10E94C1048EA1898341E050E0B401B0
:1012300086E10E94C104F1FE05C06F2D8D2D0E9434
:10124000A9072DC08F2D0E945D0729C087EE8983D5
:101250008A838B838C838D8340E065E070E0C401DA
:101260000E94EA064114510409F086CF82EC89837A
:101270008A838B838C838D8341E065E070E0C401B9
:101280000E94EA067FCF87EE89838A838B838C83D3
:101290008D8365E070E0C4010E94F5069CCF259621
:1012A0000FB6F894DEBF0FBECDBFDF91CF911F9177
:1012B0000F91FF90EF90DF90CF90AF909F908F9025
:1012C0007F906F905F904F903F902F9008958F92F6
:1012D0009F92AF92CF92EF920F93813031F03AE02C
:1012E00090E0442321F091E002C03BE0F9CF1F924F
:1012F0001F921F921F921F926F931F921F9286EC54
:101300008F9385EC8F9384EC8F9383EC8F931F9254
:101310001F9288249924FFE0AF2EE2E0CE2E73E0E6
:10132000E72E03E023E0492F61E0832F0E945F084E
:101330008DB79EB70E960FB6F8949EBF0FBE8DBFA9
:101340000F91EF90CF90AF909F908F900895519A0A
:1013500083E390E09093C5008093C40086E080937F
:10136000C2001092C00088E18093C1000895982FB8
:101370008091C00085FFFCCF9093C60008958091B6
:10138000C00087FFFCCF8091C60099270895809107
:10139000C00087FFFCCF8091C600992708958091F7
:1013A000C00099278078907008959C018091C000BA
:1013B00087FD0AC006C08091C00087FD05C021508E
:1013C000304021153105B9F78091C00087FD03C079
:1013D0008FEF9FEF08958091C60099270895CF93CE
:1013E000DF93EC012B81822F992780FF15C086FFA8
:1013F0000AC02F7B2B838E819F8101969F838E83D2
:101400008A8199272CC082FF12C0E881F9818081EE
:10141000882329F420622B838FEF9FEF20C0282F91
:10142000332727FD30953196F983E88311C0EA858B
:10143000FB85CE0109959C0197FF0AC08B812F5F28
:101440003F4F11F490E101C090E2892B8B83E4CFF0
:101450008E819F8101969F838E83822F9927DF91B2
:10146000CF910895CF93DF93CDB7DEB722970FB614
:10147000F894DEBF0FBECDBFFE013796619171912A
:10148000FA83E983E0911001F09111018381886072
:10149000838349815A8180911001909111010E94AA
:1014A000680AE0911001F09111012381277F2383C5
:1014B00022960FB6F894DEBF0FBECDBFDF91CF915D
:1014C000089560911001709111010E94520D0895CC
:1014D0002F923F924F925F926F927F928F929F9244
:1014E000AF92BF92CF92DF92EF92FF920F931F9332
:1014F000CF93DF93CDB7DEB764970FB6F894DEBF16
:101500000FBECDBFCC24DD2476011C017C8B6B8B00
:101510002A01FC0117821682838181FD03C08FEFAF
:101520009FEF88C2AA24BB2472C2A0FE57C28A8938
:1015300080538A30E8F4FA89F03341F42D85222370
:1015400029F4A3FC03C080E091E06FC08AE0ED8540
:10155000E802C0011124FA89F80FF053FD87F7FF64
:1015600002C02FE72D87A3FC4CC23D853E8749C2B0
:10157000C50188709070A3FE05C0ED85EE2311F4BF
:10158000F1E0FD872A89283624F525360CF05BC06A
:10159000233509F480C024358CF42B32C1F12C3270
:1015A00034F42032C1F1233209F00DC23CC03A8933
:1015B0003D32B1F13E3209F006C23AC08A89833623
:1015C00009F449C084360CF081C0883509F0FBC1AC
:1015D0001BC0EA89E03709F4A3C0E13744F4EC36D4
:1015E00069F1EF3671F0E93609F0EDC16FC0FA89A3
:1015F000F53709F49DC0F83739F0F33709F0E3C146
:1016000034C028E0298B94C030E1398B91C080E14F
:1016100090E0A82AB92AE0E2F0E0AE2ABF2AF1C1A0
:1016200020E830E00DC080E490E0A82AB92AE9C1A2
:10163000E8E0F0E0AE2ABF2A1D86E3C124E030E0F6
:10164000A22AB32ADEC14FE3C42E3E8531503E8725
:1016500083E68A8B44C1F201C080FE85F150FE878B
:1016600022E030E0420E531E3AC1F201C080D18028
:10167000892B49F0FD856F2F772767FD7095C6018F
:101680000E94470D19C0F60101900020E9F731973B
:10169000EC19E98B12C0F201C080D180892B49F08E
:1016A000FD856F2F772767FD7095C6010E943C0D61
:1016B00003C0C6010E94330D898B22E030E0420E48
:1016C000531E3E858989381B3E8709C1A2FE08C08A
:1016D000F20180819181A281B38124E030E009C0D0
:1016E000F20180819181AA2797FDA095BA2F22E06F
:1016F00030E0420E531E6C017D01B7FF0CC082E04A
:1017000090E0A82AB92AF094E094D094C094C11C27
:10171000D11CE11CF11CEFEBFFEFAE22BF2221C078
:1017200020E430E0A22AB32A38E73A8B80E1898BA3
:10173000A2FE08C0F20180819181A281B38124E0E0
:1017400030E007C0F20180819181AA27BB2722E007
:1017500030E0420E531E6C017D018FEC9FEFA822FA
:10176000B92287017601FE013196F88BEF87F9895E
:101770006F2E772488249924C801B701A40193010E
:101780000E947F0D6A3024F02A89620F615201C0E5
:10179000605DEF85F8896193F88BEF87C801B70129
:1017A000A40193010E947F0D79018A012115310561
:1017B0004105510509F7CC24DD247601CE010196BF
:1017C000CF84C81AC50182739070892B19F0FE85E9
:1017D000F150FE87A6FE09C02989203111F482E06C
:1017E00001C081E03E85381B3E8738E0832E912C76
:1017F0008A209B20A3FE1BC08D85282F332727FD21
:1018000030958C2D99278217930754F0E7EFFFEF5F
:10181000AE22BF2228E0822E912C8A209B2007C076
:10182000FD85FC19FD872E852F1B2E8703C03E8565
:101830003C193E87C50180789170892B69F48E85AB
:1018400006C0B10180E290E00E94520D812F182F56
:1018500011501816B4F31E87A1FE04C0B1018DE229
:1018600090E00BC0A4FE04C0B1018BE290E005C083
:10187000A5FE05C0B10180E290E00E94520DA6FED7
:1018800010C0B10180E390E00E94520D898980313F
:1018900041F4B101EA898E2F992787FD90950E9426
:1018A000520DB0FE0DC08E8506C0B10180E390E000
:1018B0000E94520D812F182F11501816B4F31E8755
:1018C000892869F02D8506C0B10180E390E00E946F
:1018D000520D212F122F11501216B4F31D8790E8CC
:1018E000692E712C6A207B20A7FC0DC08E8506C056
:1018F000B10180E290E00E94520D812F182F11500B
:101900001816B4F31E87FA89F33641F4B1018C2D11
:10191000992787FD90950E94520D45C02A8923374B
:10192000B1F446015601198909C0F50181915F01A1
:10193000B101992787FD90950E94520D1150A8F78B
:101940006401F989CF0ED11C2FEF298B2CC03A8965
:10195000333519F00F8518891FC046018601B988F3
:1019600008C0F8018491B10199270E94520D0F5FC0
:101970001F4FBA94FFEFBF16A1F764012989C20E69
:10198000D11CF98B10C0F80182918F01B101992708
:1019900087FD90950E94520DCE01019608171907F8
:1019A00091F7188B0F876728B1F08E8506C0B101BB
:1019B00080E290E00E94520D812F182F11501816CE
:1019C000B4F31E8708C0B101FA898F2F992787FDCC
:1019D00090950E94520DAA24BB2413C02A89253257
:1019E00041F43AE0398B1E861D8681E0A82EB12C89
:1019F00008C0B101EA898E2F992787FD90950E9432
:101A0000520D2B893C892F5F3F4F3C8B2B8BF10173
:101A1000838183FF04C0EB89FC89F49103C0EB89C7
:101A2000FC89F081FA8B2A89222309F07ECDF1010D
:101A30008681978164960FB6F894DEBF0FBECDBF46
:101A4000DF91CF911F910F91FF90EF90DF90CF909A
:101A5000BF90AF909F908F907F906F905F904F90CE
:101A60003F902F900895FC0105900020E9F78095A4
:101A700090958E0F9F1F0895FC0105906150704056
:101A80000110D8F7809590958E0F9F1F0895FC0147
:101A90006150704001900110D8F7809590958E0F9D
:101AA0009F1F08950F931F93CF93DF938C01EB013A
:101AB0008B81992781FF1BC082FF0DC02E813F8142
:101AC0008C819D812817390764F4E881F98101939D
:101AD000F983E88306C0E885F985802F0995892B6D
:101AE00031F48E819F8101969F838E8302C00FEF18
:101AF0001FEFC801DF91CF911F910F910895A1E2CF
:101B00001A2EAA1BBB1BFD010DC0AA1FBB1FEE1F77
:101B1000FF1FA217B307E407F50720F0A21BB30BC2
:101B2000E40BF50B661F771F881F991F1A9469F73E
:101B300060957095809590959B01AC01BD01CF019A
:041B40000895FFCF36
:0E1B44000000000300000000790075000000A2
:00000001FF
